{"abi":[{"type":"constructor","inputs":[{"name":"_admin","type":"address","internalType":"address"},{"name":"_usdc","type":"address","internalType":"address"}],"stateMutability":"nonpayable"},{"type":"receive","stateMutability":"payable"},{"type":"function","name":"adashe","inputs":[],"outputs":[{"name":"circleName","type":"string","internalType":"string"},{"name":"weeklyContribution","type":"uint256","internalType":"uint256"},{"name":"noOfMembers","type":"uint256","internalType":"uint256"},{"name":"withdrawn","type":"bool","internalType":"bool"},{"name":"frequency","type":"string","internalType":"string"},{"name":"creatorName","type":"string","internalType":"string"}],"stateMutability":"view"},{"type":"function","name":"admin","inputs":[],"outputs":[{"name":"","type":"address","internalType":"address"}],"stateMutability":"view"},{"type":"function","name":"contribute","inputs":[{"name":"weekNumber","type":"uint256","internalType":"uint256"},{"name":"_amount","type":"uint256","internalType":"uint256"}],"outputs":[],"stateMutability":"nonpayable"},{"type":"function","name":"contributions","inputs":[{"name":"","type":"address","internalType":"address"},{"name":"","type":"uint256","internalType":"uint256"}],"outputs":[{"name":"amount","type":"uint256","internalType":"uint256"},{"name":"timestamp","type":"uint256","internalType":"uint256"},{"name":"paid","type":"bool","internalType":"bool"}],"stateMutability":"view"},{"type":"function","name":"createAdashe","inputs":[{"name":"_circleName","type":"string","internalType":"string"},{"name":"_weeklyContribution","type":"uint256","internalType":"uint256"},{"name":"_noOfMembers","type":"uint256","internalType":"uint256"},{"name":"_frequency","type":"string","internalType":"string"},{"name":"_creatorName","type":"string","internalType":"string"}],"outputs":[],"stateMutability":"nonpayable"},{"type":"function","name":"frequency","inputs":[],"outputs":[{"name":"","type":"uint256","internalType":"uint256"}],"stateMutability":"view"},{"type":"function","name":"getContributionProgress","inputs":[{"name":"user","type":"address","internalType":"address"}],"outputs":[{"name":"contributedWeeks","type":"uint256","internalType":"uint256"},{"name":"total","type":"uint256","internalType":"uint256"}],"stateMutability":"view"},{"type":"function","name":"getCurrentWeek","inputs":[],"outputs":[{"name":"","type":"uint256","internalType":"uint256"}],"stateMutability":"view"},{"type":"function","name":"getMembers","inputs":[],"outputs":[{"name":"","type":"address[]","internalType":"address[]"}],"stateMutability":"view"},{"type":"function","name":"getRandomizedMembers","inputs":[],"outputs":[{"name":"","type":"address[]","internalType":"address[]"}],"stateMutability":"view"},{"type":"function","name":"getTransactionHistory","inputs":[],"outputs":[{"name":"","type":"tuple[]","internalType":"struct Adashe.TransactionHistory[]","components":[{"name":"transactionType","type":"string","internalType":"string"},{"name":"name","type":"string","internalType":"string"},{"name":"user","type":"address","internalType":"address"},{"name":"week","type":"uint256","internalType":"uint256"},{"name":"date","type":"uint256","internalType":"uint256"},{"name":"amount","type":"uint256","internalType":"uint256"}]}],"stateMutability":"view"},{"type":"function","name":"getUserTransactionHistory","inputs":[{"name":"user","type":"address","internalType":"address"}],"outputs":[{"name":"","type":"tuple[]","internalType":"struct Adashe.TransactionHistory[]","components":[{"name":"transactionType","type":"string","internalType":"string"},{"name":"name","type":"string","internalType":"string"},{"name":"user","type":"address","internalType":"address"},{"name":"week","type":"uint256","internalType":"uint256"},{"name":"date","type":"uint256","internalType":"uint256"},{"name":"amount","type":"uint256","internalType":"uint256"}]}],"stateMutability":"view"},{"type":"function","name":"isShuffled","inputs":[],"outputs":[{"name":"","type":"bool","internalType":"bool"}],"stateMutability":"view"},{"type":"function","name":"joinAdashe","inputs":[{"name":"_name","type":"string","internalType":"string"}],"outputs":[],"stateMutability":"nonpayable"},{"type":"function","name":"memberWeekWithdrawals","inputs":[{"name":"","type":"address","internalType":"address"},{"name":"","type":"uint256","internalType":"uint256"}],"outputs":[{"name":"","type":"bool","internalType":"bool"}],"stateMutability":"view"},{"type":"function","name":"names","inputs":[{"name":"","type":"address","internalType":"address"}],"outputs":[{"name":"","type":"string","internalType":"string"}],"stateMutability":"view"},{"type":"function","name":"randomizedMembers","inputs":[{"name":"","type":"uint256","internalType":"uint256"}],"outputs":[{"name":"","type":"address","internalType":"address"}],"stateMutability":"view"},{"type":"function","name":"startDate","inputs":[],"outputs":[{"name":"","type":"uint256","internalType":"uint256"}],"stateMutability":"view"},{"type":"function","name":"totalPot","inputs":[],"outputs":[{"name":"","type":"uint256","internalType":"uint256"}],"stateMutability":"view"},{"type":"function","name":"totalSaving","inputs":[],"outputs":[{"name":"","type":"uint256","internalType":"uint256"}],"stateMutability":"view"},{"type":"function","name":"totalWeeks","inputs":[],"outputs":[{"name":"","type":"uint256","internalType":"uint256"}],"stateMutability":"view"},{"type":"function","name":"transactions","inputs":[{"name":"","type":"address","internalType":"address"},{"name":"","type":"uint256","internalType":"uint256"}],"outputs":[{"name":"transactionType","type":"string","internalType":"string"},{"name":"name","type":"string","internalType":"string"},{"name":"user","type":"address","internalType":"address"},{"name":"week","type":"uint256","internalType":"uint256"},{"name":"date","type":"uint256","internalType":"uint256"},{"name":"amount","type":"uint256","internalType":"uint256"}],"stateMutability":"view"},{"type":"function","name":"usdc","inputs":[],"outputs":[{"name":"","type":"address","internalType":"contract IERC20"}],"stateMutability":"view"},{"type":"function","name":"weeksContributed","inputs":[{"name":"","type":"address","internalType":"address"}],"outputs":[{"name":"","type":"uint256","internalType":"uint256"}],"stateMutability":"view"},{"type":"function","name":"withdraw","inputs":[],"outputs":[],"stateMutability":"nonpayable"},{"type":"event","name":"AdasheCreated","inputs":[{"name":"adashe","type":"string","indexed":false,"internalType":"string"},{"name":"frequency","type":"string","indexed":false,"internalType":"string"}],"anonymous":false},{"type":"event","name":"AdasheDeposit","inputs":[{"name":"user","type":"address","indexed":false,"internalType":"address"},{"name":"amount","type":"uint256","indexed":false,"internalType":"uint256"},{"name":"time","type":"uint256","indexed":false,"internalType":"uint256"},{"name":"lockPeriod","type":"uint256","indexed":false,"internalType":"uint256"}],"anonymous":false},{"type":"event","name":"EtherWithdrawn","inputs":[{"name":"to","type":"address","indexed":true,"internalType":"address"},{"name":"amount","type":"uint256","indexed":false,"internalType":"uint256"},{"name":"timestamp","type":"uint256","indexed":false,"internalType":"uint256"}],"anonymous":false},{"type":"event","name":"JoinedAdashe","inputs":[{"name":"user","type":"address","indexed":false,"internalType":"address"}],"anonymous":false},{"type":"event","name":"Withdraw","inputs":[{"name":"user","type":"address","indexed":false,"internalType":"address"},{"name":"amount","type":"uint256","indexed":false,"internalType":"uint256"},{"name":"time","type":"uint256","indexed":false,"internalType":"uint256"}],"anonymous":false},{"type":"error","name":"AlreadyAdasheGroupMember","inputs":[]},{"type":"error","name":"AlreadyPaidThisWeek","inputs":[]},{"type":"error","name":"AlreadyWithdrawn","inputs":[]},{"type":"error","name":"CallerNotAdmin","inputs":[]},{"type":"error","name":"GroupIsFull","inputs":[]},{"type":"error","name":"InvalidAmount","inputs":[]},{"type":"error","name":"InvalidLockPeriod","inputs":[]},{"type":"error","name":"InvalidMembers","inputs":[]},{"type":"error","name":"InvalidWeek","inputs":[]},{"type":"error","name":"NotEligibleToWithdraw","inputs":[]},{"type":"error","name":"NotYetUnlocked","inputs":[]},{"type":"error","name":"TransferFailed","inputs":[]}],"bytecode":{"object":"0x60a0604052348015600f57600080fd5b5060405161253e38038061253e833981016040819052602c916085565b600080546001600160a01b039283166001600160a01b031991821617909155600180549390921692169190911790554260805262093a8060135560b3565b80516001600160a01b0381168114608057600080fd5b919050565b60008060408385031215609757600080fd5b609e83606a565b915060aa60208401606a565b90509250929050565b6080516124626100dc600039600081816101b101528181610eda0152610f0e01526124626000f3fe60806040526004361061016a5760003560e01c80635cf3d346116100d1578063b76d4fc31161008a578063d5aac01311610064578063d5aac013146104cf578063ead50da3146104ef578063f851a44014610505578063fe5564471461052557600080fd5b8063b76d4fc31461046d578063c51309db1461048f578063d168a3e4146104af57600080fd5b80635cf3d346146103af57806362eccea6146103dc5780636eb227ce146103fc5780638c590917146104115780639e1da6ab146104315780639eab52531461045857600080fd5b80632f490843116101235780632f490843146102535780633ccfd60b1461027d5780633e413bee1461029457806342b3e045146102cc5780634acfc5801461031b578063550b521c1461034857600080fd5b8063013b6217146101765780630b97bc861461019f5780630be08114146101d357806314538128146101e95780631b8982471461021b57806324b570a91461023d57600080fd5b3661017157005b600080fd5b34801561018257600080fd5b5061018c60165481565b6040519081526020015b60405180910390f35b3480156101ab57600080fd5b5061018c7f000000000000000000000000000000000000000000000000000000000000000081565b3480156101df57600080fd5b5061018c60125481565b3480156101f557600080fd5b50610209610204366004611dc6565b610545565b60405161019696959493929190611e36565b34801561022757600080fd5b506102306106b9565b6040516101969190611e8a565b34801561024957600080fd5b5061018c60115481565b34801561025f57600080fd5b5060155461026d9060ff1681565b6040519015158152602001610196565b34801561028957600080fd5b5061029261071b565b005b3480156102a057600080fd5b506000546102b4906001600160a01b031681565b6040516001600160a01b039091168152602001610196565b3480156102d857600080fd5b506103066102e7366004611ed6565b6001600160a01b03166000908152600760205260409020546012549091565b60408051928352602083019190915201610196565b34801561032757600080fd5b5061018c610336366004611ed6565b60076020526000908152604090205481565b34801561035457600080fd5b50610392610363366004611dc6565b600560209081526000928352604080842090915290825290208054600182015460029092015490919060ff1683565b604080519384526020840192909252151590820152606001610196565b3480156103bb57600080fd5b506103cf6103ca366004611ed6565b610b0d565b6040516101969190611ef8565b3480156103e857600080fd5b506102926103f7366004611fb0565b610ba7565b34801561040857600080fd5b5061018c610ed6565b34801561041d57600080fd5b5061029261042c366004612058565b610f42565b34801561043d57600080fd5b50610446611269565b6040516101969695949392919061207a565b34801561046457600080fd5b50610230611432565b34801561047957600080fd5b50610482611495565b60405161019691906120d4565b34801561049b57600080fd5b506104826104aa366004611ed6565b61165a565b3480156104bb57600080fd5b5061026d6104ca366004611dc6565b611854565b3480156104db57600080fd5b506102b46104ea366004612191565b611897565b3480156104fb57600080fd5b5061018c60135481565b34801561051157600080fd5b506001546102b4906001600160a01b031681565b34801561053157600080fd5b506102926105403660046121aa565b6118c1565b6008602052816000526040600020818154811061056157600080fd5b906000526020600020906006020160009150915050806000018054610585906121e7565b80601f01602080910402602001604051908101604052809291908181526020018280546105b1906121e7565b80156105fe5780601f106105d3576101008083540402835291602001916105fe565b820191906000526020600020905b8154815290600101906020018083116105e157829003601f168201915b505050505090806001018054610613906121e7565b80601f016020809104026020016040519081016040528092919081815260200182805461063f906121e7565b801561068c5780601f106106615761010080835404028352916020019161068c565b820191906000526020600020905b81548152906001019060200180831161066f57829003601f168201915b5050505060028301546003840154600485015460059095015493946001600160a01b039092169390925086565b6060601480548060200260200160405190810160405280929190818152602001828054801561071157602002820191906000526020600020905b81546001600160a01b031681526001909101906020018083116106f3575b5050505050905090565b6000610725610ed6565b60155490915060ff166107935760405162461bcd60e51b815260206004820152602b60248201527f5769746864726177616c73206e6f742079657420616c6c6f7765643b2067726f60448201526a1d5c081b9bdd08199d5b1b60aa1b60648201526084015b60405180910390fd5b600d5481106107b55760405163ef23848760e01b815260040160405180910390fd5b6000601482815481106107ca576107ca612221565b6000918252602090912001546001600160a01b03169050338114610801576040516321a7a87560e21b815260040160405180910390fd5b33600090815260096020526040902080548390811061082257610822612221565b90600052602060002090602091828204019190069054906101000a900460ff161561086057604051636507689f60e01b815260040160405180910390fd5b3360009081526009602052604090208054600191908490811061088557610885612221565b60009182526020808320908204018054931515601f9092166101000a91820260ff9092021990931617909155600c54600b546108c1919061224d565b60005460405163a9059cbb60e01b8152336004820152602481018390529192506001600160a01b03169063a9059cbb906044016020604051808303816000875af1158015610913573d6000803e3d6000fd5b505050506040513d601f19601f82011682018060405250810190610937919061226a565b610954576040516312171d8360e31b815260040160405180910390fd5b33600081815260086020818152604080842081516101008101835260c0810194855267576974686472617760c01b60e082015293845294845260068252909220805491928301916109a4906121e7565b80601f01602080910402602001604051908101604052809291908181526020018280546109d0906121e7565b8015610a1d5780601f106109f257610100808354040283529160200191610a1d565b820191906000526020600020905b815481529060010190602001808311610a0057829003601f168201915b5050509183525050336020808301919091526040820187905242606083015260809091018490528254600181018455600093845292208151919260060201908190610a6890826122db565b5060208201516001820190610a7d90826122db565b506040828101516002830180546001600160a01b0319166001600160a01b0390921691909117905560608084015160038401556080840151600484015560a09093015160059092019190915580513381526020810184905242918101919091527ff279e6a1f5e320cca91135676d9cb6e44ca8a08c0b88342bcdb1144f6511b568910160405180910390a1505050565b60066020526000908152604090208054610b26906121e7565b80601f0160208091040260200160405190810160405280929190818152602001828054610b52906121e7565b8015610b9f5780601f10610b7457610100808354040283529160200191610b9f565b820191906000526020600020905b815481529060010190602001808311610b8257829003601f168201915b505050505081565b82600003610bc857604051630592b4c160e21b815260040160405180910390fd5b83600003610be95760405163162908e360e11b815260040160405180910390fd5b6040805160008082526101008201835260208201888152928201879052606082018690526080820182905260a082015260c0810184905260e0810183905290600a80610c3589826122db565b5060208281015160018301556040830151600283015560608301518051610c629260038501920190611c55565b50608082015160048201805460ff191691151591909117905560a08201516005820190610c8f90826122db565b5060c08201516006820190610ca490826122db565b5050600d8054600181019091557fd7b6990105719101dabeb77144f2a3385c8033acd3af97e9423a695e81ad1eb50180546001600160a01b0319163390811790915560009081526006602052604090209050610d0083826122db565b50336000908152600360205260409020805460ff19166001179055600c5467ffffffffffffffff811115610d3657610d36611f0b565b604051908082528060200260200182016040528015610d5f578160200160208202803683370190505b503360009081526009602090815260409091208251610d849391929190910190611cba565b506040805180820190915260068152657765656b6c7960d01b6020918201528351908401207f79d3f3831f7fbf4ca83f0d032766c059c0c38978643506a49e2dbb8bc696fc8c01610ddb5762093a80601355610e8f565b6040805180820190915260078152666d6f6e74686c7960c81b6020918201528351908401207fbc653c95ba6ab0e1ef2c238d03b66718c3dadf383ac23d2821c24ea540886de801610e325762278d00601355610e8f565b6040805180820190915260058152646461696c7960d81b6020918201528351908401207f2c378731571e801b70c0f7cb3d2df974c6fbf4c1c55983cdcdc2a27d83b9679f01610e875762015180601355610e8f565b62093a806013555b60128490556040517f338d83bbdd8d518ca8a69c9342d0db528b08d4817901757bdc012f0dbf60b33b90610ec6908890869061239a565b60405180910390a1505050505050565b60007f0000000000000000000000000000000000000000000000000000000000000000421015610f065750600090565b601354610f337f0000000000000000000000000000000000000000000000000000000000000000426123c8565b610f3d91906123f1565b905090565b601254821115610f655760405163ef23848760e01b815260040160405180910390fd5b33600090815260056020908152604080832085845290915290206002015460ff1615610fa45760405163c03e252960e01b815260040160405180910390fd5b600b548114610fc65760405163162908e360e11b815260040160405180910390fd5b600080546040516323b872dd60e01b8152336004820152306024820152604481018490526001600160a01b03909116906323b872dd906064016020604051808303816000875af115801561101e573d6000803e3d6000fd5b505050506040513d601f19601f82011682018060405250810190611042919061226a565b905080611062576040516312171d8360e31b815260040160405180910390fd5b604080516060810182528381524260208083019182526001838501818152336000818152600585528781208b8252855287812096518755945192860192909255516002909401805460ff19169415159490941790935582825260088152838220845161010081018652600a60c0820190815269436f6e7472696275746560b01b60e083015281529383526006825293909120805491830191611103906121e7565b80601f016020809104026020016040519081016040528092919081815260200182805461112f906121e7565b801561117c5780601f106111515761010080835404028352916020019161117c565b820191906000526020600020905b81548152906001019060200180831161115f57829003601f168201915b50505091835250503360208083019190915260408201879052426060830152608090910185905282546001810184556000938452922081519192600602019081906111c790826122db565b50602082015160018201906111dc90826122db565b506040828101516002830180546001600160a01b0319166001600160a01b0390921691909117905560608301516003830155608083015160048084019190915560a0909301516005909201919091553360009081526020928352818120805460ff191660019081179091556007909352908120805490919061125f908490612405565b9091555050505050565b600a80548190611278906121e7565b80601f01602080910402602001604051908101604052809291908181526020018280546112a4906121e7565b80156112f15780601f106112c6576101008083540402835291602001916112f1565b820191906000526020600020905b8154815290600101906020018083116112d457829003601f168201915b5050506001840154600285015460048601546005870180549697939692955060ff909116935090611321906121e7565b80601f016020809104026020016040519081016040528092919081815260200182805461134d906121e7565b801561139a5780601f1061136f5761010080835404028352916020019161139a565b820191906000526020600020905b81548152906001019060200180831161137d57829003601f168201915b5050505050908060060180546113af906121e7565b80601f01602080910402602001604051908101604052809291908181526020018280546113db906121e7565b80156114285780601f106113fd57610100808354040283529160200191611428565b820191906000526020600020905b81548152906001019060200180831161140b57829003601f168201915b5050505050905086565b6060600a600301805480602002602001604051908101604052809291908181526020018280548015610711576020028201919060005260206000209081546001600160a01b031681526001909101906020018083116106f3575050505050905090565b336000908152600860209081526040808320805482518185028101850190935280835260609492939192909184015b8282101561165157838290600052602060002090600602016040518060c00160405290816000820180546114f7906121e7565b80601f0160208091040260200160405190810160405280929190818152602001828054611523906121e7565b80156115705780601f1061154557610100808354040283529160200191611570565b820191906000526020600020905b81548152906001019060200180831161155357829003601f168201915b50505050508152602001600182018054611589906121e7565b80601f01602080910402602001604051908101604052809291908181526020018280546115b5906121e7565b80156116025780601f106115d757610100808354040283529160200191611602565b820191906000526020600020905b8154815290600101906020018083116115e557829003601f168201915b505050918352505060028201546001600160a01b0316602080830191909152600383015460408301526004830154606083015260059092015460809091015290825260019290920191016114c4565b50505050905090565b6001546060906001600160a01b031633146116885760405163036c8cf960e11b815260040160405180910390fd5b6001600160a01b038216600090815260086020908152604080832080548251818502810185019093528083529193909284015b8282101561184857838290600052602060002090600602016040518060c00160405290816000820180546116ee906121e7565b80601f016020809104026020016040519081016040528092919081815260200182805461171a906121e7565b80156117675780601f1061173c57610100808354040283529160200191611767565b820191906000526020600020905b81548152906001019060200180831161174a57829003601f168201915b50505050508152602001600182018054611780906121e7565b80601f01602080910402602001604051908101604052809291908181526020018280546117ac906121e7565b80156117f95780601f106117ce576101008083540402835291602001916117f9565b820191906000526020600020905b8154815290600101906020018083116117dc57829003601f168201915b505050918352505060028201546001600160a01b0316602080830191909152600383015460408301526004830154606083015260059092015460809091015290825260019290920191016116bb565b5050505090505b919050565b6009602052816000526040600020818154811061187057600080fd5b9060005260206000209060209182820401919006915091509054906101000a900460ff1681565b601481815481106118a757600080fd5b6000918252602090912001546001600160a01b0316905081565b3360009081526003602052604090205460ff16156118f157604051628201ff60e51b815260040160405180910390fd5b600c54600d54106119155760405163bb2c7b0f60e01b815260040160405180910390fd5b600d8054600181019091557fd7b6990105719101dabeb77144f2a3385c8033acd3af97e9423a695e81ad1eb50180546001600160a01b03191633908117909155600090815260066020526040902061196d82826122db565b50336000908152600360205260409020805460ff19166001179055600c5467ffffffffffffffff8111156119a3576119a3611f0b565b6040519080825280602002602001820160405280156119cc578160200160208202803683370190505b5033600090815260096020908152604090912082516119f19391929190910190611cba565b506040513381527f731b7337b297b06a1853099f6dec71a1a2d20deed94a07e96790ace39b3f9e059060200160405180910390a1600c54600d54148015611a3b575060155460ff16155b15611a4857611a48611a4b565b50565b600c54600d5414611a8f5760405162461bcd60e51b815260206004820152600e60248201526d11dc9bdd5c081b9bdd08199d5b1b60921b604482015260640161078a565b60155460ff1615611ad55760405162461bcd60e51b815260206004820152601060248201526f105b1c9958591e481cda1d59999b195960821b604482015260640161078a565b600d8054611ae591601491611d5a565b5060005b601454811015611c4557601454600090611b049083906123c8565b604080514260208201526bffffffffffffffffffffffff193360601b1691810191909152605481018490526074016040516020818303038152906040528051906020012060001c611b559190612418565b611b5f9083612405565b9050600060148381548110611b7657611b76612221565b600091825260209091200154601480546001600160a01b0390921692509083908110611ba457611ba4612221565b600091825260209091200154601480546001600160a01b039092169185908110611bd057611bd0612221565b9060005260206000200160006101000a8154816001600160a01b0302191690836001600160a01b031602179055508060148381548110611c1257611c12612221565b600091825260209091200180546001600160a01b0319166001600160a01b03929092169190911790555050600101611ae9565b506015805460ff19166001179055565b828054828255906000526020600020908101928215611caa579160200282015b82811115611caa57825182546001600160a01b0319166001600160a01b03909116178255602090920191600190910190611c75565b50611cb6929150611d9a565b5090565b82805482825590600052602060002090601f01602090048101928215611caa5791602002820160005b83821115611d2057835183826101000a81548160ff0219169083151502179055509260200192600101602081600001049283019260010302611ce3565b8015611d4d5782816101000a81549060ff0219169055600101602081600001049283019260010302611d20565b5050611cb6929150611d9a565b828054828255906000526020600020908101928215611caa5760005260206000209182015b82811115611caa578254825591600101919060010190611d7f565b5b80821115611cb65760008155600101611d9b565b80356001600160a01b038116811461184f57600080fd5b60008060408385031215611dd957600080fd5b611de283611daf565b946020939093013593505050565b6000815180845260005b81811015611e1657602081850181015186830182015201611dfa565b506000602082860101526020601f19601f83011685010191505092915050565b60c081526000611e4960c0830189611df0565b8281036020840152611e5b8189611df0565b6001600160a01b0397909716604084015250506060810193909352608083019190915260a09091015292915050565b602080825282518282018190526000918401906040840190835b81811015611ecb5783516001600160a01b0316835260209384019390920191600101611ea4565b509095945050505050565b600060208284031215611ee857600080fd5b611ef182611daf565b9392505050565b602081526000611ef16020830184611df0565b634e487b7160e01b600052604160045260246000fd5b600082601f830112611f3257600080fd5b813567ffffffffffffffff811115611f4c57611f4c611f0b565b604051601f8201601f19908116603f0116810167ffffffffffffffff81118282101715611f7b57611f7b611f0b565b604052818152838201602001851015611f9357600080fd5b816020850160208301376000918101602001919091529392505050565b600080600080600060a08688031215611fc857600080fd5b853567ffffffffffffffff811115611fdf57600080fd5b611feb88828901611f21565b9550506020860135935060408601359250606086013567ffffffffffffffff81111561201657600080fd5b61202288828901611f21565b925050608086013567ffffffffffffffff81111561203f57600080fd5b61204b88828901611f21565b9150509295509295909350565b6000806040838503121561206b57600080fd5b50508035926020909101359150565b60c08152600061208d60c0830189611df0565b876020840152866040840152851515606084015282810360808401526120b38186611df0565b905082810360a08401526120c78185611df0565b9998505050505050505050565b6000602082016020835280845180835260408501915060408160051b86010192506020860160005b8281101561218557603f198786030184528151805160c0875261212260c0880182611df0565b90506020820151878203602089015261213b8282611df0565b6040848101516001600160a01b0316908a0152606080850151908a0152608080850151908a015260a0938401519390980192909252505060209384019391909101906001016120fc565b50929695505050505050565b6000602082840312156121a357600080fd5b5035919050565b6000602082840312156121bc57600080fd5b813567ffffffffffffffff8111156121d357600080fd5b6121df84828501611f21565b949350505050565b600181811c908216806121fb57607f821691505b60208210810361221b57634e487b7160e01b600052602260045260246000fd5b50919050565b634e487b7160e01b600052603260045260246000fd5b634e487b7160e01b600052601160045260246000fd5b808202811582820484141761226457612264612237565b92915050565b60006020828403121561227c57600080fd5b81518015158114611ef157600080fd5b601f8211156122d657806000526020600020601f840160051c810160208510156122b35750805b601f840160051c820191505b818110156122d357600081556001016122bf565b50505b505050565b815167ffffffffffffffff8111156122f5576122f5611f0b565b6123098161230384546121e7565b8461228c565b6020601f82116001811461233d57600083156123255750848201515b600019600385901b1c1916600184901b1784556122d3565b600084815260208120601f198516915b8281101561236d578785015182556020948501946001909201910161234d565b508482101561238b5786840151600019600387901b60f8161c191681555b50505050600190811b01905550565b6040815260006123ad6040830185611df0565b82810360208401526123bf8185611df0565b95945050505050565b8181038181111561226457612264612237565b634e487b7160e01b600052601260045260246000fd5b600082612400576124006123db565b500490565b8082018082111561226457612264612237565b600082612427576124276123db565b50069056fea26469706673582212206942460fc53ee97f9668ea5e01be9e520abf2e594212ff08c5ebcb2d99485d1964736f6c634300081a0033","linkReferences":{}},"methodIdentifiers":{"adashe()":"9e1da6ab","admin()":"f851a440","contribute(uint256,uint256)":"8c590917","contributions(address,uint256)":"550b521c","createAdashe(string,uint256,uint256,string,string)":"62eccea6","frequency()":"ead50da3","getContributionProgress(address)":"42b3e045","getCurrentWeek()":"6eb227ce","getMembers()":"9eab5253","getRandomizedMembers()":"1b898247","getTransactionHistory()":"b76d4fc3","getUserTransactionHistory(address)":"c51309db","isShuffled()":"2f490843","joinAdashe(string)":"fe556447","memberWeekWithdrawals(address,uint256)":"d168a3e4","names(address)":"5cf3d346","randomizedMembers(uint256)":"d5aac013","startDate()":"0b97bc86","totalPot()":"24b570a9","totalSaving()":"013b6217","totalWeeks()":"0be08114","transactions(address,uint256)":"14538128","usdc()":"3e413bee","weeksContributed(address)":"4acfc580","withdraw()":"3ccfd60b"},"id":17}