{"abi":[{"type":"constructor","inputs":[],"stateMutability":"nonpayable"},{"type":"function","name":"adashes","inputs":[{"name":"","type":"address","internalType":"address"},{"name":"","type":"uint256","internalType":"uint256"}],"outputs":[{"name":"","type":"address","internalType":"address"}],"stateMutability":"view"},{"type":"function","name":"allAdashes","inputs":[{"name":"","type":"uint256","internalType":"uint256"}],"outputs":[{"name":"","type":"address","internalType":"address"}],"stateMutability":"view"},{"type":"function","name":"createAdashe","inputs":[],"outputs":[{"name":"","type":"address","internalType":"address"}],"stateMutability":"nonpayable"},{"type":"function","name":"getActiveCircle","inputs":[],"outputs":[{"name":"","type":"address[]","internalType":"address[]"}],"stateMutability":"view"},{"type":"function","name":"getAdashes","inputs":[],"outputs":[{"name":"","type":"address[]","internalType":"address[]"}],"stateMutability":"view"},{"type":"function","name":"owner","inputs":[],"outputs":[{"name":"","type":"address","internalType":"address"}],"stateMutability":"view"}],"bytecode":{"object":"0x6080604052348015600f57600080fd5b50600080546001600160a01b031916331790556125ee806100316000396000f3fe608060405234801561001057600080fd5b50600436106100625760003560e01c806310ad387314610067578063164c17b7146100855780638da5cb5b1461008d578063aa53040e146100b8578063b8935d84146100cb578063fd709f45146100d3575b600080fd5b61006f6100e6565b60405161007c91906104f2565b60405180910390f35b61006f610151565b6000546100a0906001600160a01b031681565b6040516001600160a01b03909116815260200161007c565b6100a06100c636600461053e565b6103b0565b6100a06103da565b6100a06100e136600461056f565b6104ad565b3360009081526001602090815260409182902080548351818402810184019094528084526060939283018282801561014757602002820191906000526020600020905b81546001600160a01b03168152600190910190602001808311610129575b5050505050905090565b60025460609060009067ffffffffffffffff8111156101725761017261059b565b60405190808252806020026020018201604052801561019b578160200160208202803683370190505b5090506000805b600254811015610309576000600282815481106101c1576101c16105b1565b9060005260206000200160009054906101000a90046001600160a01b031690506000816001600160a01b0316639eab52536040518163ffffffff1660e01b8152600401600060405180830381865afa158015610221573d6000803e3d6000fd5b505050506040513d6000823e601f3d908101601f1916820160405261024991908101906105d7565b905060005b81518110156102fe57336001600160a01b0316828281518110610273576102736105b1565b60200260200101516001600160a01b0316036102f6576002848154811061029c5761029c6105b1565b9060005260206000200160009054906101000a90046001600160a01b03168686815181106102cc576102cc6105b1565b6001600160a01b0390921660209283029190910190910152846102ee816106a7565b9550506102fe565b60010161024e565b5050506001016101a2565b5060008167ffffffffffffffff8111156103255761032561059b565b60405190808252806020026020018201604052801561034e578160200160208202803683370190505b50905060005b828110156103a85783818151811061036e5761036e6105b1565b6020026020010151828281518110610388576103886105b1565b6001600160a01b0390921660209283029190910190910152600101610354565b509392505050565b600281815481106103c057600080fd5b6000918252602090912001546001600160a01b0316905081565b6000803373036cbd53842c5426634e7929541ec2318f3dcf7e6040516103ff906104e5565b6001600160a01b03928316815291166020820152604001604051809103906000f080158015610432573d6000803e3d6000fd5b503360009081526001602081815260408320805480840182559084529083200180546001600160a01b0385166001600160a01b031991821681179092556002805493840181559093527f405787fa12a823e0f2b7631cc41b3ba8828b3321ca811111fa75cd3aa3bb5ace909101805490921617905592915050565b600160205281600052604060002081815481106104c957600080fd5b6000918252602090912001546001600160a01b03169150829050565b611eea806106cf83390190565b602080825282518282018190526000918401906040840190835b818110156105335783516001600160a01b031683526020938401939092019160010161050c565b509095945050505050565b60006020828403121561055057600080fd5b5035919050565b6001600160a01b038116811461056c57600080fd5b50565b6000806040838503121561058257600080fd5b823561058d81610557565b946020939093013593505050565b634e487b7160e01b600052604160045260246000fd5b634e487b7160e01b600052603260045260246000fd5b80516105d281610557565b919050565b6000602082840312156105e957600080fd5b815167ffffffffffffffff81111561060057600080fd5b8201601f8101841361061157600080fd5b805167ffffffffffffffff81111561062b5761062b61059b565b8060051b604051601f19603f830116810181811067ffffffffffffffff821117156106585761065861059b565b60405291825260208184018101929081018784111561067657600080fd5b6020850194505b8385101561069c5761068e856105c7565b81526020948501940161067d565b509695505050505050565b6000600182016106c757634e487b7160e01b600052601160045260246000fd5b506001019056fe60a0604052348015600f57600080fd5b50604051611eea380380611eea833981016040819052602c916085565b600080546001600160a01b039283166001600160a01b031991821617909155600180549390921692169190911790554260805262093a8060135560b3565b80516001600160a01b0381168114608057600080fd5b919050565b60008060408385031215609757600080fd5b609e83606a565b915060aa60208401606a565b90509250929050565b608051611e0e6100dc6000396000818161018b01528181610cfd0152610d310152611e0e6000f3fe6080604052600436106101445760003560e01c8063550b521c116100b65780639e1da6ab1161006f5780639e1da6ab1461042b5780639eab525314610452578063d168a3e414610467578063d5aac01314610487578063ead50da3146104a7578063fe556447146104bd57600080fd5b8063550b521c146103225780635cf3d3461461038957806362eccea6146103b65780636eb227ce146103d65780638c590917146103eb5780638da5cb5b1461040b57600080fd5b806324b570a91161010857806324b570a9146102175780632f4908431461022d5780633ccfd60b146102575780633e413bee1461026e57806342b3e045146102a65780634acfc580146102f557600080fd5b8063013b6217146101505780630b97bc86146101795780630be08114146101ad57806314538128146101c35780631b898247146101f557600080fd5b3661014b57005b600080fd5b34801561015c57600080fd5b5061016660165481565b6040519081526020015b60405180910390f35b34801561018557600080fd5b506101667f000000000000000000000000000000000000000000000000000000000000000081565b3480156101b957600080fd5b5061016660125481565b3480156101cf57600080fd5b506101e36101de36600461182f565b6104dd565b6040516101709695949392919061189f565b34801561020157600080fd5b5061020a610651565b60405161017091906118f3565b34801561022357600080fd5b5061016660115481565b34801561023957600080fd5b506015546102479060ff1681565b6040519015158152602001610170565b34801561026357600080fd5b5061026c6106b3565b005b34801561027a57600080fd5b5060005461028e906001600160a01b031681565b6040516001600160a01b039091168152602001610170565b3480156102b257600080fd5b506102e06102c136600461193f565b6001600160a01b03166000908152600760205260409020546012549091565b60408051928352602083019190915201610170565b34801561030157600080fd5b5061016661031036600461193f565b60076020526000908152604090205481565b34801561032e57600080fd5b5061036c61033d36600461182f565b600560209081526000928352604080842090915290825290208054600182015460029092015490919060ff1683565b604080519384526020840192909252151590820152606001610170565b34801561039557600080fd5b506103a96103a436600461193f565b610930565b6040516101709190611961565b3480156103c257600080fd5b5061026c6103d1366004611a19565b6109ca565b3480156103e257600080fd5b50610166610cf9565b3480156103f757600080fd5b5061026c610406366004611ac1565b610d65565b34801561041757600080fd5b5060015461028e906001600160a01b031681565b34801561043757600080fd5b5061044061108c565b60405161017096959493929190611ae3565b34801561045e57600080fd5b5061020a611255565b34801561047357600080fd5b5061024761048236600461182f565b6112b8565b34801561049357600080fd5b5061028e6104a2366004611b3d565b6112fb565b3480156104b357600080fd5b5061016660135481565b3480156104c957600080fd5b5061026c6104d8366004611b56565b611325565b600860205281600052604060002081815481106104f957600080fd5b90600052602060002090600602016000915091505080600001805461051d90611b93565b80601f016020809104026020016040519081016040528092919081815260200182805461054990611b93565b80156105965780601f1061056b57610100808354040283529160200191610596565b820191906000526020600020905b81548152906001019060200180831161057957829003601f168201915b5050505050908060010180546105ab90611b93565b80601f01602080910402602001604051908101604052809291908181526020018280546105d790611b93565b80156106245780601f106105f957610100808354040283529160200191610624565b820191906000526020600020905b81548152906001019060200180831161060757829003601f168201915b5050505060028301546003840154600485015460059095015493946001600160a01b039092169390925086565b606060148054806020026020016040519081016040528092919081815260200182805480156106a957602002820191906000526020600020905b81546001600160a01b0316815260019091019060200180831161068b575b5050505050905090565b60006106bd610cf9565b60155490915060ff1661072b5760405162461bcd60e51b815260206004820152602b60248201527f5769746864726177616c73206e6f742079657420616c6c6f7765643b2067726f60448201526a1d5c081b9bdd08199d5b1b60aa1b60648201526084015b60405180910390fd5b600d54811061074d5760405163ef23848760e01b815260040160405180910390fd5b60006014828154811061076257610762611bcd565b6000918252602090912001546001600160a01b03169050338114610799576040516321a7a87560e21b815260040160405180910390fd5b3360009081526009602052604090208054839081106107ba576107ba611bcd565b90600052602060002090602091828204019190069054906101000a900460ff16156107f857604051636507689f60e01b815260040160405180910390fd5b3360009081526009602052604090208054600191908490811061081d5761081d611bcd565b60009182526020808320908204018054931515601f9092166101000a91820260ff9092021990931617909155600c54600b546108599190611bf9565b60005460405163a9059cbb60e01b8152336004820152602481018390529192506001600160a01b03169063a9059cbb906044016020604051808303816000875af11580156108ab573d6000803e3d6000fd5b505050506040513d601f19601f820116820180604052508101906108cf9190611c16565b6108ec576040516312171d8360e31b815260040160405180910390fd5b6040805133815260208101839052428183015290517ff279e6a1f5e320cca91135676d9cb6e44ca8a08c0b88342bcdb1144f6511b5689181900360600190a1505050565b6006602052600090815260409020805461094990611b93565b80601f016020809104026020016040519081016040528092919081815260200182805461097590611b93565b80156109c25780601f10610997576101008083540402835291602001916109c2565b820191906000526020600020905b8154815290600101906020018083116109a557829003601f168201915b505050505081565b826000036109eb57604051630592b4c160e21b815260040160405180910390fd5b83600003610a0c5760405163162908e360e11b815260040160405180910390fd5b6040805160008082526101008201835260208201888152928201879052606082018690526080820182905260a082015260c0810184905260e0810183905290600a80610a588982611c87565b5060208281015160018301556040830151600283015560608301518051610a8592600385019201906116b9565b50608082015160048201805460ff191691151591909117905560a08201516005820190610ab29082611c87565b5060c08201516006820190610ac79082611c87565b5050600d8054600181019091557fd7b6990105719101dabeb77144f2a3385c8033acd3af97e9423a695e81ad1eb50180546001600160a01b0319163390811790915560009081526006602052604090209050610b238382611c87565b50336000908152600360205260409020805460ff19166001179055600c5467ffffffffffffffff811115610b5957610b59611974565b604051908082528060200260200182016040528015610b82578160200160208202803683370190505b503360009081526009602090815260409091208251610ba7939192919091019061171e565b506040805180820190915260068152657765656b6c7960d01b6020918201528351908401207f79d3f3831f7fbf4ca83f0d032766c059c0c38978643506a49e2dbb8bc696fc8c01610bfe5762093a80601355610cb2565b6040805180820190915260078152666d6f6e74686c7960c81b6020918201528351908401207fbc653c95ba6ab0e1ef2c238d03b66718c3dadf383ac23d2821c24ea540886de801610c555762278d00601355610cb2565b6040805180820190915260058152646461696c7960d81b6020918201528351908401207f2c378731571e801b70c0f7cb3d2df974c6fbf4c1c55983cdcdc2a27d83b9679f01610caa5762015180601355610cb2565b62093a806013555b60128490556040517f338d83bbdd8d518ca8a69c9342d0db528b08d4817901757bdc012f0dbf60b33b90610ce99088908690611d46565b60405180910390a1505050505050565b60007f0000000000000000000000000000000000000000000000000000000000000000421015610d295750600090565b601354610d567f000000000000000000000000000000000000000000000000000000000000000042611d74565b610d609190611d9d565b905090565b601254821115610d885760405163ef23848760e01b815260040160405180910390fd5b33600090815260056020908152604080832085845290915290206002015460ff1615610dc75760405163c03e252960e01b815260040160405180910390fd5b600b548114610de95760405163162908e360e11b815260040160405180910390fd5b600080546040516323b872dd60e01b8152336004820152306024820152604481018490526001600160a01b03909116906323b872dd906064016020604051808303816000875af1158015610e41573d6000803e3d6000fd5b505050506040513d601f19601f82011682018060405250810190610e659190611c16565b905080610e85576040516312171d8360e31b815260040160405180910390fd5b604080516060810182528381524260208083019182526001838501818152336000818152600585528781208b8252855287812096518755945192860192909255516002909401805460ff19169415159490941790935582825260088152838220845161010081018652600a60c0820190815269436f6e7472696275746560b01b60e083015281529383526006825293909120805491830191610f2690611b93565b80601f0160208091040260200160405190810160405280929190818152602001828054610f5290611b93565b8015610f9f5780601f10610f7457610100808354040283529160200191610f9f565b820191906000526020600020905b815481529060010190602001808311610f8257829003601f168201915b5050509183525050336020808301919091526040820187905242606083015260809091018590528254600181018455600093845292208151919260060201908190610fea9082611c87565b5060208201516001820190610fff9082611c87565b506040828101516002830180546001600160a01b0319166001600160a01b0390921691909117905560608301516003830155608083015160048084019190915560a0909301516005909201919091553360009081526020928352818120805460ff1916600190811790915560079093529081208054909190611082908490611db1565b9091555050505050565b600a8054819061109b90611b93565b80601f01602080910402602001604051908101604052809291908181526020018280546110c790611b93565b80156111145780601f106110e957610100808354040283529160200191611114565b820191906000526020600020905b8154815290600101906020018083116110f757829003601f168201915b5050506001840154600285015460048601546005870180549697939692955060ff90911693509061114490611b93565b80601f016020809104026020016040519081016040528092919081815260200182805461117090611b93565b80156111bd5780601f10611192576101008083540402835291602001916111bd565b820191906000526020600020905b8154815290600101906020018083116111a057829003601f168201915b5050505050908060060180546111d290611b93565b80601f01602080910402602001604051908101604052809291908181526020018280546111fe90611b93565b801561124b5780601f106112205761010080835404028352916020019161124b565b820191906000526020600020905b81548152906001019060200180831161122e57829003601f168201915b5050505050905086565b6060600a6003018054806020026020016040519081016040528092919081815260200182805480156106a9576020028201919060005260206000209081546001600160a01b0316815260019091019060200180831161068b575050505050905090565b600960205281600052604060002081815481106112d457600080fd5b9060005260206000209060209182820401919006915091509054906101000a900460ff1681565b6014818154811061130b57600080fd5b6000918252602090912001546001600160a01b0316905081565b3360009081526003602052604090205460ff161561135557604051628201ff60e51b815260040160405180910390fd5b600c54600d54106113795760405163bb2c7b0f60e01b815260040160405180910390fd5b600d8054600181019091557fd7b6990105719101dabeb77144f2a3385c8033acd3af97e9423a695e81ad1eb50180546001600160a01b0319163390811790915560009081526006602052604090206113d18282611c87565b50336000908152600360205260409020805460ff19166001179055600c5467ffffffffffffffff81111561140757611407611974565b604051908082528060200260200182016040528015611430578160200160208202803683370190505b503360009081526009602090815260409091208251611455939192919091019061171e565b506040513381527f731b7337b297b06a1853099f6dec71a1a2d20deed94a07e96790ace39b3f9e059060200160405180910390a1600c54600d5414801561149f575060155460ff16155b156114ac576114ac6114af565b50565b600c54600d54146114f35760405162461bcd60e51b815260206004820152600e60248201526d11dc9bdd5c081b9bdd08199d5b1b60921b6044820152606401610722565b60155460ff16156115395760405162461bcd60e51b815260206004820152601060248201526f105b1c9958591e481cda1d59999b195960821b6044820152606401610722565b600d8054611549916014916117be565b5060005b6014548110156116a957601454600090611568908390611d74565b604080514260208201526bffffffffffffffffffffffff193360601b1691810191909152605481018490526074016040516020818303038152906040528051906020012060001c6115b99190611dc4565b6115c39083611db1565b90506000601483815481106115da576115da611bcd565b600091825260209091200154601480546001600160a01b039092169250908390811061160857611608611bcd565b600091825260209091200154601480546001600160a01b03909216918590811061163457611634611bcd565b9060005260206000200160006101000a8154816001600160a01b0302191690836001600160a01b03160217905550806014838154811061167657611676611bcd565b600091825260209091200180546001600160a01b0319166001600160a01b0392909216919091179055505060010161154d565b506015805460ff19166001179055565b82805482825590600052602060002090810192821561170e579160200282015b8281111561170e57825182546001600160a01b0319166001600160a01b039091161782556020909201916001909101906116d9565b5061171a9291506117fe565b5090565b82805482825590600052602060002090601f0160209004810192821561170e5791602002820160005b8382111561178457835183826101000a81548160ff0219169083151502179055509260200192600101602081600001049283019260010302611747565b80156117b15782816101000a81549060ff0219169055600101602081600001049283019260010302611784565b505061171a9291506117fe565b82805482825590600052602060002090810192821561170e5760005260206000209182015b8281111561170e5782548255916001019190600101906117e3565b5b8082111561171a57600081556001016117ff565b80356001600160a01b038116811461182a57600080fd5b919050565b6000806040838503121561184257600080fd5b61184b83611813565b946020939093013593505050565b6000815180845260005b8181101561187f57602081850181015186830182015201611863565b506000602082860101526020601f19601f83011685010191505092915050565b60c0815260006118b260c0830189611859565b82810360208401526118c48189611859565b6001600160a01b0397909716604084015250506060810193909352608083019190915260a09091015292915050565b602080825282518282018190526000918401906040840190835b818110156119345783516001600160a01b031683526020938401939092019160010161190d565b509095945050505050565b60006020828403121561195157600080fd5b61195a82611813565b9392505050565b60208152600061195a6020830184611859565b634e487b7160e01b600052604160045260246000fd5b600082601f83011261199b57600080fd5b813567ffffffffffffffff8111156119b5576119b5611974565b604051601f8201601f19908116603f0116810167ffffffffffffffff811182821017156119e4576119e4611974565b6040528181528382016020018510156119fc57600080fd5b816020850160208301376000918101602001919091529392505050565b600080600080600060a08688031215611a3157600080fd5b853567ffffffffffffffff811115611a4857600080fd5b611a548882890161198a565b9550506020860135935060408601359250606086013567ffffffffffffffff811115611a7f57600080fd5b611a8b8882890161198a565b925050608086013567ffffffffffffffff811115611aa857600080fd5b611ab48882890161198a565b9150509295509295909350565b60008060408385031215611ad457600080fd5b50508035926020909101359150565b60c081526000611af660c0830189611859565b87602084015286604084015285151560608401528281036080840152611b1c8186611859565b905082810360a0840152611b308185611859565b9998505050505050505050565b600060208284031215611b4f57600080fd5b5035919050565b600060208284031215611b6857600080fd5b813567ffffffffffffffff811115611b7f57600080fd5b611b8b8482850161198a565b949350505050565b600181811c90821680611ba757607f821691505b602082108103611bc757634e487b7160e01b600052602260045260246000fd5b50919050565b634e487b7160e01b600052603260045260246000fd5b634e487b7160e01b600052601160045260246000fd5b8082028115828204841417611c1057611c10611be3565b92915050565b600060208284031215611c2857600080fd5b8151801515811461195a57600080fd5b601f821115611c8257806000526020600020601f840160051c81016020851015611c5f5750805b601f840160051c820191505b81811015611c7f5760008155600101611c6b565b50505b505050565b815167ffffffffffffffff811115611ca157611ca1611974565b611cb581611caf8454611b93565b84611c38565b6020601f821160018114611ce95760008315611cd15750848201515b600019600385901b1c1916600184901b178455611c7f565b600084815260208120601f198516915b82811015611d195787850151825560209485019460019092019101611cf9565b5084821015611d375786840151600019600387901b60f8161c191681555b50505050600190811b01905550565b604081526000611d596040830185611859565b8281036020840152611d6b8185611859565b95945050505050565b81810381811115611c1057611c10611be3565b634e487b7160e01b600052601260045260246000fd5b600082611dac57611dac611d87565b500490565b80820180821115611c1057611c10611be3565b600082611dd357611dd3611d87565b50069056fea2646970667358221220497202af3654e91836b5839071ca5575caec8b1f7a5b42e19ebccb25a32708fb64736f6c634300081a0033a264697066735822122094a741d14e60344aaf2de0ecb0db399dcd7a891fa81c569097ba4ce9b235d1d164736f6c634300081a0033","linkReferences":{}},"methodIdentifiers":{"adashes(address,uint256)":"fd709f45","allAdashes(uint256)":"aa53040e","createAdashe()":"b8935d84","getActiveCircle()":"164c17b7","getAdashes()":"10ad3873","owner()":"8da5cb5b"},"id":18}