{"abi":[{"type":"constructor","inputs":[{"name":"_owner","type":"address","internalType":"address"},{"name":"_usdc","type":"address","internalType":"address"}],"stateMutability":"nonpayable"},{"type":"function","name":"adashe","inputs":[],"outputs":[{"name":"circleName","type":"string","internalType":"string"},{"name":"weeklyContribution","type":"uint256","internalType":"uint256"},{"name":"noOfMembers","type":"uint256","internalType":"uint256"},{"name":"withdrawn","type":"bool","internalType":"bool"},{"name":"frequency","type":"string","internalType":"string"},{"name":"creatorName","type":"string","internalType":"string"}],"stateMutability":"view"},{"type":"function","name":"contribute","inputs":[{"name":"weekNumber","type":"uint256","internalType":"uint256"},{"name":"_amount","type":"uint256","internalType":"uint256"}],"outputs":[],"stateMutability":"nonpayable"},{"type":"function","name":"contributions","inputs":[{"name":"","type":"address","internalType":"address"},{"name":"","type":"uint256","internalType":"uint256"}],"outputs":[{"name":"amount","type":"uint256","internalType":"uint256"},{"name":"timestamp","type":"uint256","internalType":"uint256"},{"name":"paid","type":"bool","internalType":"bool"}],"stateMutability":"view"},{"type":"function","name":"createAdashe","inputs":[{"name":"_circleName","type":"string","internalType":"string"},{"name":"_weeklyContribution","type":"uint256","internalType":"uint256"},{"name":"_noOfMembers","type":"uint256","internalType":"uint256"},{"name":"_frequency","type":"string","internalType":"string"},{"name":"_creatorName","type":"string","internalType":"string"}],"outputs":[],"stateMutability":"nonpayable"},{"type":"function","name":"frequency","inputs":[],"outputs":[{"name":"","type":"uint256","internalType":"uint256"}],"stateMutability":"view"},{"type":"function","name":"getContributionProgress","inputs":[{"name":"user","type":"address","internalType":"address"}],"outputs":[{"name":"contributedWeeks","type":"uint256","internalType":"uint256"},{"name":"total","type":"uint256","internalType":"uint256"}],"stateMutability":"view"},{"type":"function","name":"getCurrentWeek","inputs":[],"outputs":[{"name":"","type":"uint256","internalType":"uint256"}],"stateMutability":"view"},{"type":"function","name":"getMembers","inputs":[],"outputs":[{"name":"","type":"address[]","internalType":"address[]"}],"stateMutability":"view"},{"type":"function","name":"joinAdashe","inputs":[{"name":"_name","type":"string","internalType":"string"}],"outputs":[],"stateMutability":"nonpayable"},{"type":"function","name":"memberWeekWithdrawals","inputs":[{"name":"","type":"address","internalType":"address"},{"name":"","type":"uint256","internalType":"uint256"}],"outputs":[{"name":"","type":"bool","internalType":"bool"}],"stateMutability":"view"},{"type":"function","name":"names","inputs":[{"name":"","type":"address","internalType":"address"}],"outputs":[{"name":"","type":"string","internalType":"string"}],"stateMutability":"view"},{"type":"function","name":"owner","inputs":[],"outputs":[{"name":"","type":"address","internalType":"address"}],"stateMutability":"view"},{"type":"function","name":"startDate","inputs":[],"outputs":[{"name":"","type":"uint256","internalType":"uint256"}],"stateMutability":"view"},{"type":"function","name":"totalPot","inputs":[],"outputs":[{"name":"","type":"uint256","internalType":"uint256"}],"stateMutability":"view"},{"type":"function","name":"totalSaving","inputs":[],"outputs":[{"name":"","type":"uint256","internalType":"uint256"}],"stateMutability":"view"},{"type":"function","name":"totalWeeks","inputs":[],"outputs":[{"name":"","type":"uint256","internalType":"uint256"}],"stateMutability":"view"},{"type":"function","name":"transactions","inputs":[{"name":"","type":"address","internalType":"address"},{"name":"","type":"uint256","internalType":"uint256"}],"outputs":[{"name":"transactionType","type":"string","internalType":"string"},{"name":"name","type":"string","internalType":"string"},{"name":"user","type":"address","internalType":"address"},{"name":"week","type":"uint256","internalType":"uint256"},{"name":"date","type":"uint256","internalType":"uint256"},{"name":"amount","type":"uint256","internalType":"uint256"}],"stateMutability":"view"},{"type":"function","name":"usdc","inputs":[],"outputs":[{"name":"","type":"address","internalType":"contract IERC20"}],"stateMutability":"view"},{"type":"function","name":"weeksContributed","inputs":[{"name":"","type":"address","internalType":"address"}],"outputs":[{"name":"","type":"uint256","internalType":"uint256"}],"stateMutability":"view"},{"type":"function","name":"withdraw","inputs":[],"outputs":[],"stateMutability":"nonpayable"},{"type":"event","name":"AdasheCreated","inputs":[{"name":"adashe","type":"string","indexed":false,"internalType":"string"},{"name":"frequency","type":"string","indexed":false,"internalType":"string"}],"anonymous":false},{"type":"event","name":"AdasheDeposit","inputs":[{"name":"user","type":"address","indexed":false,"internalType":"address"},{"name":"amount","type":"uint256","indexed":false,"internalType":"uint256"},{"name":"time","type":"uint256","indexed":false,"internalType":"uint256"},{"name":"lockPeriod","type":"uint256","indexed":false,"internalType":"uint256"}],"anonymous":false},{"type":"event","name":"EmergencyWithdrawalExecuted","inputs":[{"name":"owner","type":"address","indexed":true,"internalType":"address"},{"name":"amount","type":"uint256","indexed":false,"internalType":"uint256"},{"name":"timestamp","type":"uint256","indexed":false,"internalType":"uint256"}],"anonymous":false},{"type":"event","name":"EtherWithdrawn","inputs":[{"name":"to","type":"address","indexed":true,"internalType":"address"},{"name":"amount","type":"uint256","indexed":false,"internalType":"uint256"},{"name":"timestamp","type":"uint256","indexed":false,"internalType":"uint256"}],"anonymous":false},{"type":"event","name":"JoinedAdashe","inputs":[{"name":"user","type":"address","indexed":false,"internalType":"address"}],"anonymous":false},{"type":"event","name":"Withdraw","inputs":[{"name":"user","type":"address","indexed":false,"internalType":"address"},{"name":"amount","type":"uint256","indexed":false,"internalType":"uint256"},{"name":"time","type":"uint256","indexed":false,"internalType":"uint256"}],"anonymous":false},{"type":"error","name":"AlreadyAdasheGroupMember","inputs":[]},{"type":"error","name":"AlreadyPaidThisWeek","inputs":[]},{"type":"error","name":"AlreadyWithdrawn","inputs":[]},{"type":"error","name":"CallerNotOwner","inputs":[]},{"type":"error","name":"GroupIsFull","inputs":[]},{"type":"error","name":"InvalidAmount","inputs":[]},{"type":"error","name":"InvalidLockPeriod","inputs":[]},{"type":"error","name":"InvalidMembers","inputs":[]},{"type":"error","name":"InvalidWeek","inputs":[]},{"type":"error","name":"NotAlreadyAdasheGroupMember","inputs":[]},{"type":"error","name":"NotYetUnlocked","inputs":[]},{"type":"error","name":"TransferFailed","inputs":[]}],"bytecode":{"object":"0x60a0604052348015600f57600080fd5b50604051611903380380611903833981016040819052602c916085565b600080546001600160a01b039283166001600160a01b031991821617909155600180549390921692169190911790554260805262093a8060135560b3565b80516001600160a01b0381168114608057600080fd5b919050565b60008060408385031215609757600080fd5b609e83606a565b915060aa60208401606a565b90509250929050565b6080516118276100dc60003960008181610152015281816109e40152610a1801526118276000f3fe608060405234801561001057600080fd5b506004361061012c5760003560e01c80635cf3d346116100ad5780639e1da6ab116100715780639e1da6ab146102fd5780639eab525314610317578063d168a3e41461032c578063ead50da31461034f578063fe5564471461035857600080fd5b80635cf3d3461461029c57806362eccea6146102bc5780636eb227ce146102cf5780638c590917146102d75780638da5cb5b146102ea57600080fd5b80633ccfd60b116100f45780633ccfd60b146101ab5780633e413bee146101b557806342b3e045146101e05780634acfc58014610222578063550b521c1461024257600080fd5b8063013b6217146101315780630b97bc861461014d5780630be0811414610174578063145381281461017d57806324b570a9146101a2575b600080fd5b61013a60145481565b6040519081526020015b60405180910390f35b61013a7f000000000000000000000000000000000000000000000000000000000000000081565b61013a60125481565b61019061018b36600461127d565b61036b565b604051610144969594939291906112ed565b61013a60115481565b6101b36104df565b005b6000546101c8906001600160a01b031681565b6040516001600160a01b039091168152602001610144565b61020d6101ee366004611341565b6001600160a01b03166000908152600760205260409020546012549091565b60408051928352602083019190915201610144565b61013a610230366004611341565b60076020526000908152604090205481565b61027f61025036600461127d565b600560209081526000928352604080842090915290825290208054600182015460029092015490919060ff1683565b604080519384526020840192909252151590820152606001610144565b6102af6102aa366004611341565b6106f4565b6040516101449190611363565b6101b36102ca36600461141b565b61078e565b61013a6109e0565b6101b36102e53660046114c3565b610a4c565b6001546101c8906001600160a01b031681565b610305610d73565b604051610144969594939291906114e5565b61031f610f3c565b604051610144919061153f565b61033f61033a36600461127d565b610fa1565b6040519015158152602001610144565b61013a60135481565b6101b361036636600461158b565b610fe4565b6008602052816000526040600020818154811061038757600080fd5b9060005260206000209060060201600091509150508060000180546103ab906115c8565b80601f01602080910402602001604051908101604052809291908181526020018280546103d7906115c8565b80156104245780601f106103f957610100808354040283529160200191610424565b820191906000526020600020905b81548152906001019060200180831161040757829003601f168201915b505050505090806001018054610439906115c8565b80601f0160208091040260200160405190810160405280929190818152602001828054610465906115c8565b80156104b25780601f10610487576101008083540402835291602001916104b2565b820191906000526020600020905b81548152906001019060200180831161049557829003601f168201915b5050505060028301546003840154600485015460059095015493946001600160a01b039092169390925086565b60006104e96109e0565b600d54909150811061050e5760405163ef23848760e01b815260040160405180910390fd5b6000600a600301828154811061052657610526611602565b6000918252602090912001546001600160a01b0316905033811461055d5760405163023b592560e31b815260040160405180910390fd5b33600090815260096020526040902080548390811061057e5761057e611602565b90600052602060002090602091828204019190069054906101000a900460ff16156105bc57604051636507689f60e01b815260040160405180910390fd5b336000908152600960205260409020805460019190849081106105e1576105e1611602565b60009182526020808320908204018054931515601f9092166101000a91820260ff9092021990931617909155600c54600b5461061d919061162e565b60005460405163a9059cbb60e01b8152336004820152602481018390529192506001600160a01b03169063a9059cbb906044016020604051808303816000875af115801561066f573d6000803e3d6000fd5b505050506040513d601f19601f82011682018060405250810190610693919061164b565b6106b0576040516312171d8360e31b815260040160405180910390fd5b6040805133815260208101839052428183015290517ff279e6a1f5e320cca91135676d9cb6e44ca8a08c0b88342bcdb1144f6511b5689181900360600190a1505050565b6006602052600090815260409020805461070d906115c8565b80601f0160208091040260200160405190810160405280929190818152602001828054610739906115c8565b80156107865780601f1061075b57610100808354040283529160200191610786565b820191906000526020600020905b81548152906001019060200180831161076957829003601f168201915b505050505081565b826000036107af57604051630592b4c160e21b815260040160405180910390fd5b836000036107d05760405163162908e360e11b815260040160405180910390fd5b6040805160008082526101008201835260208201888152928201879052606082018690526080820182905260a082015260c0810184905260e0810183905290600a8061081c89826116bc565b5060208281015160018301556040830151600283015560608301518051610849926003850192019061114b565b50608082015160048201805460ff191691151591909117905560a0820151600582019061087690826116bc565b5060c0820151600682019061088b90826116bc565b50506040805180820190915260068152657765656b6c7960d01b6020918201528451908501207f79d3f3831f7fbf4ca83f0d032766c059c0c38978643506a49e2dbb8bc696fc8c0190506108e55762093a80601355610999565b6040805180820190915260078152666d6f6e74686c7960c81b6020918201528351908401207fbc653c95ba6ab0e1ef2c238d03b66718c3dadf383ac23d2821c24ea540886de80161093c5762278d00601355610999565b6040805180820190915260058152646461696c7960d81b6020918201528351908401207f2c378731571e801b70c0f7cb3d2df974c6fbf4c1c55983cdcdc2a27d83b9679f016109915762015180601355610999565b62093a806013555b60128490556040517f338d83bbdd8d518ca8a69c9342d0db528b08d4817901757bdc012f0dbf60b33b906109d0908890869061177b565b60405180910390a1505050505050565b60007f0000000000000000000000000000000000000000000000000000000000000000421015610a105750600090565b601354610a3d7f0000000000000000000000000000000000000000000000000000000000000000426117a9565b610a4791906117bc565b905090565b601254821115610a6f5760405163ef23848760e01b815260040160405180910390fd5b33600090815260056020908152604080832085845290915290206002015460ff1615610aae5760405163c03e252960e01b815260040160405180910390fd5b600b548114610ad05760405163162908e360e11b815260040160405180910390fd5b600080546040516323b872dd60e01b8152336004820152306024820152604481018490526001600160a01b03909116906323b872dd906064016020604051808303816000875af1158015610b28573d6000803e3d6000fd5b505050506040513d601f19601f82011682018060405250810190610b4c919061164b565b905080610b6c576040516312171d8360e31b815260040160405180910390fd5b604080516060810182528381524260208083019182526001838501818152336000818152600585528781208b8252855287812096518755945192860192909255516002909401805460ff19169415159490941790935582825260088152838220845161010081018652600a60c0820190815269436f6e7472696275746560b01b60e083015281529383526006825293909120805491830191610c0d906115c8565b80601f0160208091040260200160405190810160405280929190818152602001828054610c39906115c8565b8015610c865780601f10610c5b57610100808354040283529160200191610c86565b820191906000526020600020905b815481529060010190602001808311610c6957829003601f168201915b5050509183525050336020808301919091526040820187905242606083015260809091018590528254600181018455600093845292208151919260060201908190610cd190826116bc565b5060208201516001820190610ce690826116bc565b506040828101516002830180546001600160a01b0319166001600160a01b0390921691909117905560608301516003830155608083015160048084019190915560a0909301516005909201919091553360009081526020928352818120805460ff1916600190811790915560079093529081208054909190610d699084906117de565b9091555050505050565b600a80548190610d82906115c8565b80601f0160208091040260200160405190810160405280929190818152602001828054610dae906115c8565b8015610dfb5780601f10610dd057610100808354040283529160200191610dfb565b820191906000526020600020905b815481529060010190602001808311610dde57829003601f168201915b5050506001840154600285015460048601546005870180549697939692955060ff909116935090610e2b906115c8565b80601f0160208091040260200160405190810160405280929190818152602001828054610e57906115c8565b8015610ea45780601f10610e7957610100808354040283529160200191610ea4565b820191906000526020600020905b815481529060010190602001808311610e8757829003601f168201915b505050505090806006018054610eb9906115c8565b80601f0160208091040260200160405190810160405280929190818152602001828054610ee5906115c8565b8015610f325780601f10610f0757610100808354040283529160200191610f32565b820191906000526020600020905b815481529060010190602001808311610f1557829003601f168201915b5050505050905086565b6060600a600301805480602002602001604051908101604052809291908181526020018280548015610f9757602002820191906000526020600020905b81546001600160a01b03168152600190910190602001808311610f79575b5050505050905090565b60096020528160005260406000208181548110610fbd57600080fd5b9060005260206000209060209182820401919006915091509054906101000a900460ff1681565b3360009081526003602052604090205460ff161561101457604051628201ff60e51b815260040160405180910390fd5b600c54600d54106110385760405163bb2c7b0f60e01b815260040160405180910390fd5b600d8054600181019091557fd7b6990105719101dabeb77144f2a3385c8033acd3af97e9423a695e81ad1eb50180546001600160a01b03191633908117909155600090815260066020526040902061109082826116bc565b50336000908152600360205260409020805460ff19166001179055600c5467ffffffffffffffff8111156110c6576110c6611376565b6040519080825280602002602001820160405280156110ef578160200160208202803683370190505b50336000908152600960209081526040909120825161111493919291909101906111b0565b506040513381527f731b7337b297b06a1853099f6dec71a1a2d20deed94a07e96790ace39b3f9e059060200160405180910390a150565b8280548282559060005260206000209081019282156111a0579160200282015b828111156111a057825182546001600160a01b0319166001600160a01b0390911617825560209092019160019091019061116b565b506111ac92915061124c565b5090565b82805482825590600052602060002090601f016020900481019282156111a05791602002820160005b8382111561121657835183826101000a81548160ff02191690831515021790555092602001926001016020816000010492830192600103026111d9565b80156112435782816101000a81549060ff0219169055600101602081600001049283019260010302611216565b50506111ac9291505b5b808211156111ac576000815560010161124d565b80356001600160a01b038116811461127857600080fd5b919050565b6000806040838503121561129057600080fd5b61129983611261565b946020939093013593505050565b6000815180845260005b818110156112cd576020818501810151868301820152016112b1565b506000602082860101526020601f19601f83011685010191505092915050565b60c08152600061130060c08301896112a7565b828103602084015261131281896112a7565b6001600160a01b0397909716604084015250506060810193909352608083019190915260a09091015292915050565b60006020828403121561135357600080fd5b61135c82611261565b9392505050565b60208152600061135c60208301846112a7565b634e487b7160e01b600052604160045260246000fd5b600082601f83011261139d57600080fd5b813567ffffffffffffffff8111156113b7576113b7611376565b604051601f8201601f19908116603f0116810167ffffffffffffffff811182821017156113e6576113e6611376565b6040528181528382016020018510156113fe57600080fd5b816020850160208301376000918101602001919091529392505050565b600080600080600060a0868803121561143357600080fd5b853567ffffffffffffffff81111561144a57600080fd5b6114568882890161138c565b9550506020860135935060408601359250606086013567ffffffffffffffff81111561148157600080fd5b61148d8882890161138c565b925050608086013567ffffffffffffffff8111156114aa57600080fd5b6114b68882890161138c565b9150509295509295909350565b600080604083850312156114d657600080fd5b50508035926020909101359150565b60c0815260006114f860c08301896112a7565b8760208401528660408401528515156060840152828103608084015261151e81866112a7565b905082810360a084015261153281856112a7565b9998505050505050505050565b602080825282518282018190526000918401906040840190835b818110156115805783516001600160a01b0316835260209384019390920191600101611559565b509095945050505050565b60006020828403121561159d57600080fd5b813567ffffffffffffffff8111156115b457600080fd5b6115c08482850161138c565b949350505050565b600181811c908216806115dc57607f821691505b6020821081036115fc57634e487b7160e01b600052602260045260246000fd5b50919050565b634e487b7160e01b600052603260045260246000fd5b634e487b7160e01b600052601160045260246000fd5b808202811582820484141761164557611645611618565b92915050565b60006020828403121561165d57600080fd5b8151801515811461135c57600080fd5b601f8211156116b757806000526020600020601f840160051c810160208510156116945750805b601f840160051c820191505b818110156116b457600081556001016116a0565b50505b505050565b815167ffffffffffffffff8111156116d6576116d6611376565b6116ea816116e484546115c8565b8461166d565b6020601f82116001811461171e57600083156117065750848201515b600019600385901b1c1916600184901b1784556116b4565b600084815260208120601f198516915b8281101561174e578785015182556020948501946001909201910161172e565b508482101561176c5786840151600019600387901b60f8161c191681555b50505050600190811b01905550565b60408152600061178e60408301856112a7565b82810360208401526117a081856112a7565b95945050505050565b8181038181111561164557611645611618565b6000826117d957634e487b7160e01b600052601260045260246000fd5b500490565b808201808211156116455761164561161856fea2646970667358221220bab68cf9ad87ff4583542d20bbe8737fdc07594af3b4f155172ff39ba120e17a64736f6c634300081a0033","linkReferences":{}},"methodIdentifiers":{"adashe()":"9e1da6ab","contribute(uint256,uint256)":"8c590917","contributions(address,uint256)":"550b521c","createAdashe(string,uint256,uint256,string,string)":"62eccea6","frequency()":"ead50da3","getContributionProgress(address)":"42b3e045","getCurrentWeek()":"6eb227ce","getMembers()":"9eab5253","joinAdashe(string)":"fe556447","memberWeekWithdrawals(address,uint256)":"d168a3e4","names(address)":"5cf3d346","owner()":"8da5cb5b","startDate()":"0b97bc86","totalPot()":"24b570a9","totalSaving()":"013b6217","totalWeeks()":"0be08114","transactions(address,uint256)":"14538128","usdc()":"3e413bee","weeksContributed(address)":"4acfc580","withdraw()":"3ccfd60b"},"id":17}