{"abi":[{"type":"constructor","inputs":[{"name":"_owner","type":"address","internalType":"address"},{"name":"_usdc","type":"address","internalType":"address"}],"stateMutability":"nonpayable"},{"type":"function","name":"adashe","inputs":[],"outputs":[{"name":"circleName","type":"string","internalType":"string"},{"name":"weeklyContribution","type":"uint256","internalType":"uint256"},{"name":"noOfMembers","type":"uint256","internalType":"uint256"},{"name":"withdrawn","type":"bool","internalType":"bool"},{"name":"frequency","type":"string","internalType":"string"}],"stateMutability":"view"},{"type":"function","name":"contribute","inputs":[{"name":"weekNumber","type":"uint256","internalType":"uint256"},{"name":"_amount","type":"uint256","internalType":"uint256"}],"outputs":[],"stateMutability":"nonpayable"},{"type":"function","name":"contributions","inputs":[{"name":"","type":"address","internalType":"address"},{"name":"","type":"uint256","internalType":"uint256"}],"outputs":[{"name":"amount","type":"uint256","internalType":"uint256"},{"name":"timestamp","type":"uint256","internalType":"uint256"},{"name":"paid","type":"bool","internalType":"bool"}],"stateMutability":"view"},{"type":"function","name":"createAdashe","inputs":[{"name":"_circleName","type":"string","internalType":"string"},{"name":"_weeklyContribution","type":"uint256","internalType":"uint256"},{"name":"_noOfMembers","type":"uint256","internalType":"uint256"},{"name":"_frequency","type":"string","internalType":"string"}],"outputs":[],"stateMutability":"nonpayable"},{"type":"function","name":"frequency","inputs":[],"outputs":[{"name":"","type":"uint256","internalType":"uint256"}],"stateMutability":"view"},{"type":"function","name":"getContributionProgress","inputs":[{"name":"user","type":"address","internalType":"address"}],"outputs":[{"name":"contributedWeeks","type":"uint256","internalType":"uint256"},{"name":"total","type":"uint256","internalType":"uint256"}],"stateMutability":"view"},{"type":"function","name":"getCurrentWeek","inputs":[],"outputs":[{"name":"","type":"uint256","internalType":"uint256"}],"stateMutability":"view"},{"type":"function","name":"getMembers","inputs":[],"outputs":[{"name":"","type":"address[]","internalType":"address[]"}],"stateMutability":"view"},{"type":"function","name":"joinAdashe","inputs":[{"name":"_name","type":"string","internalType":"string"}],"outputs":[],"stateMutability":"nonpayable"},{"type":"function","name":"memberWeekWithdrawals","inputs":[{"name":"","type":"address","internalType":"address"},{"name":"","type":"uint256","internalType":"uint256"}],"outputs":[{"name":"","type":"bool","internalType":"bool"}],"stateMutability":"view"},{"type":"function","name":"names","inputs":[{"name":"","type":"address","internalType":"address"}],"outputs":[{"name":"","type":"string","internalType":"string"}],"stateMutability":"view"},{"type":"function","name":"owner","inputs":[],"outputs":[{"name":"","type":"address","internalType":"address"}],"stateMutability":"view"},{"type":"function","name":"startDate","inputs":[],"outputs":[{"name":"","type":"uint256","internalType":"uint256"}],"stateMutability":"view"},{"type":"function","name":"totalPot","inputs":[],"outputs":[{"name":"","type":"uint256","internalType":"uint256"}],"stateMutability":"view"},{"type":"function","name":"totalSaving","inputs":[],"outputs":[{"name":"","type":"uint256","internalType":"uint256"}],"stateMutability":"view"},{"type":"function","name":"totalWeeks","inputs":[],"outputs":[{"name":"","type":"uint256","internalType":"uint256"}],"stateMutability":"view"},{"type":"function","name":"transactions","inputs":[{"name":"","type":"address","internalType":"address"},{"name":"","type":"uint256","internalType":"uint256"}],"outputs":[{"name":"transactionType","type":"string","internalType":"string"},{"name":"name","type":"string","internalType":"string"},{"name":"user","type":"address","internalType":"address"},{"name":"week","type":"uint256","internalType":"uint256"},{"name":"date","type":"uint256","internalType":"uint256"},{"name":"amount","type":"uint256","internalType":"uint256"}],"stateMutability":"view"},{"type":"function","name":"usdc","inputs":[],"outputs":[{"name":"","type":"address","internalType":"contract IERC20"}],"stateMutability":"view"},{"type":"function","name":"weeksContributed","inputs":[{"name":"","type":"address","internalType":"address"}],"outputs":[{"name":"","type":"uint256","internalType":"uint256"}],"stateMutability":"view"},{"type":"function","name":"withdraw","inputs":[],"outputs":[],"stateMutability":"nonpayable"},{"type":"event","name":"AdasheCreated","inputs":[{"name":"adashe","type":"string","indexed":false,"internalType":"string"},{"name":"frequency","type":"string","indexed":false,"internalType":"string"}],"anonymous":false},{"type":"event","name":"AdasheDeposit","inputs":[{"name":"user","type":"address","indexed":false,"internalType":"address"},{"name":"amount","type":"uint256","indexed":false,"internalType":"uint256"},{"name":"time","type":"uint256","indexed":false,"internalType":"uint256"},{"name":"lockPeriod","type":"uint256","indexed":false,"internalType":"uint256"}],"anonymous":false},{"type":"event","name":"EmergencyWithdrawalExecuted","inputs":[{"name":"owner","type":"address","indexed":true,"internalType":"address"},{"name":"amount","type":"uint256","indexed":false,"internalType":"uint256"},{"name":"timestamp","type":"uint256","indexed":false,"internalType":"uint256"}],"anonymous":false},{"type":"event","name":"EtherWithdrawn","inputs":[{"name":"to","type":"address","indexed":true,"internalType":"address"},{"name":"amount","type":"uint256","indexed":false,"internalType":"uint256"},{"name":"timestamp","type":"uint256","indexed":false,"internalType":"uint256"}],"anonymous":false},{"type":"event","name":"JoinedAdashe","inputs":[{"name":"user","type":"address","indexed":false,"internalType":"address"}],"anonymous":false},{"type":"event","name":"Withdraw","inputs":[{"name":"user","type":"address","indexed":false,"internalType":"address"},{"name":"amount","type":"uint256","indexed":false,"internalType":"uint256"},{"name":"time","type":"uint256","indexed":false,"internalType":"uint256"}],"anonymous":false},{"type":"error","name":"AlreadyAdasheGroupMember","inputs":[]},{"type":"error","name":"AlreadyPaidThisWeek","inputs":[]},{"type":"error","name":"AlreadyWithdrawn","inputs":[]},{"type":"error","name":"CallerNotOwner","inputs":[]},{"type":"error","name":"GroupIsFull","inputs":[]},{"type":"error","name":"InvalidAmount","inputs":[]},{"type":"error","name":"InvalidLockPeriod","inputs":[]},{"type":"error","name":"InvalidMembers","inputs":[]},{"type":"error","name":"InvalidWeek","inputs":[]},{"type":"error","name":"NotAlreadyAdasheGroupMember","inputs":[]},{"type":"error","name":"NotYetUnlocked","inputs":[]},{"type":"error","name":"TransferFailed","inputs":[]}],"bytecode":{"object":"0x60a0604052348015600f57600080fd5b50604051611815380380611815833981016040819052602c916085565b600080546001600160a01b039283166001600160a01b031991821617909155600180549390921692169190911790554260805262093a8060125560b3565b80516001600160a01b0381168114608057600080fd5b919050565b60008060408385031215609757600080fd5b609e83606a565b915060aa60208401606a565b90509250929050565b6080516117396100dc600039600081816101520152818161079101526107c501526117396000f3fe608060405234801561001057600080fd5b506004361061012c5760003560e01c80635cf3d346116100ad5780639e1da6ab116100715780639e1da6ab146102fd5780639eab525314610316578063d168a3e41461032b578063ead50da31461034e578063fe5564471461035757600080fd5b80635cf3d3461461029c5780636eb227ce146102bc57806379e563d8146102c45780638c590917146102d75780638da5cb5b146102ea57600080fd5b80633ccfd60b116100f45780633ccfd60b146101ab5780633e413bee146101b557806342b3e045146101e05780634acfc58014610222578063550b521c1461024257600080fd5b8063013b6217146101315780630b97bc861461014d5780630be0811414610174578063145381281461017d57806324b570a9146101a2575b600080fd5b61013a60135481565b6040519081526020015b60405180910390f35b61013a7f000000000000000000000000000000000000000000000000000000000000000081565b61013a60115481565b61019061018b3660046111d0565b61036a565b60405161014496959493929190611240565b61013a60105481565b6101b36104de565b005b6000546101c8906001600160a01b031681565b6040516001600160a01b039091168152602001610144565b61020d6101ee366004611294565b6001600160a01b03166000908152600760205260409020546011549091565b60408051928352602083019190915201610144565b61013a610230366004611294565b60076020526000908152604090205481565b61027f6102503660046111d0565b600560209081526000928352604080842090915290825290208054600182015460029092015490919060ff1683565b604080519384526020840192909252151590820152606001610144565b6102af6102aa366004611294565b6106f3565b60405161014491906112b6565b61013a61078d565b6101b36102d236600461136e565b6107f9565b6101b36102e53660046113ea565b610a2d565b6001546101c8906001600160a01b031681565b610305610d54565b60405161014495949392919061140c565b61031e610e8f565b6040516101449190611451565b61033e6103393660046111d0565b610ef4565b6040519015158152602001610144565b61013a60125481565b6101b361036536600461149d565b610f37565b6008602052816000526040600020818154811061038657600080fd5b9060005260206000209060060201600091509150508060000180546103aa906114da565b80601f01602080910402602001604051908101604052809291908181526020018280546103d6906114da565b80156104235780601f106103f857610100808354040283529160200191610423565b820191906000526020600020905b81548152906001019060200180831161040657829003601f168201915b505050505090806001018054610438906114da565b80601f0160208091040260200160405190810160405280929190818152602001828054610464906114da565b80156104b15780601f10610486576101008083540402835291602001916104b1565b820191906000526020600020905b81548152906001019060200180831161049457829003601f168201915b5050505060028301546003840154600485015460059095015493946001600160a01b039092169390925086565b60006104e861078d565b600d54909150811061050d5760405163ef23848760e01b815260040160405180910390fd5b6000600a600301828154811061052557610525611514565b6000918252602090912001546001600160a01b0316905033811461055c5760405163023b592560e31b815260040160405180910390fd5b33600090815260096020526040902080548390811061057d5761057d611514565b90600052602060002090602091828204019190069054906101000a900460ff16156105bb57604051636507689f60e01b815260040160405180910390fd5b336000908152600960205260409020805460019190849081106105e0576105e0611514565b60009182526020808320908204018054931515601f9092166101000a91820260ff9092021990931617909155600c54600b5461061c9190611540565b60005460405163a9059cbb60e01b8152336004820152602481018390529192506001600160a01b03169063a9059cbb906044016020604051808303816000875af115801561066e573d6000803e3d6000fd5b505050506040513d601f19601f82011682018060405250810190610692919061155d565b6106af576040516312171d8360e31b815260040160405180910390fd5b6040805133815260208101839052428183015290517ff279e6a1f5e320cca91135676d9cb6e44ca8a08c0b88342bcdb1144f6511b5689181900360600190a1505050565b6006602052600090815260409020805461070c906114da565b80601f0160208091040260200160405190810160405280929190818152602001828054610738906114da565b80156107855780601f1061075a57610100808354040283529160200191610785565b820191906000526020600020905b81548152906001019060200180831161076857829003601f168201915b505050505081565b60007f00000000000000000000000000000000000000000000000000000000000000004210156107bd5750600090565b6012546107ea7f00000000000000000000000000000000000000000000000000000000000000004261157f565b6107f49190611592565b905090565b8160000361081a57604051630592b4c160e21b815260040160405180910390fd5b8260000361083b5760405163162908e360e11b815260040160405180910390fd5b60408051600080825260e08201835260208201878152928201869052606082018590526080820182905260a082015260c0810183905290600a8061087f8882611603565b50602082810151600183015560408301516002830155606083015180516108ac926003850192019061109e565b50608082015160048201805460ff191691151591909117905560a082015160058201906108d99082611603565b50506040805180820190915260068152657765656b6c7960d01b6020918201528351908401207f79d3f3831f7fbf4ca83f0d032766c059c0c38978643506a49e2dbb8bc696fc8c0190506109335762093a806012556109e7565b6040805180820190915260078152666d6f6e74686c7960c81b6020918201528251908301207fbc653c95ba6ab0e1ef2c238d03b66718c3dadf383ac23d2821c24ea540886de80161098a5762278d006012556109e7565b6040805180820190915260058152646461696c7960d81b6020918201528251908301207f2c378731571e801b70c0f7cb3d2df974c6fbf4c1c55983cdcdc2a27d83b9679f016109df57620151806012556109e7565b62093a806012555b60118390556040517f338d83bbdd8d518ca8a69c9342d0db528b08d4817901757bdc012f0dbf60b33b90610a1e90879085906116c2565b60405180910390a15050505050565b601154821115610a505760405163ef23848760e01b815260040160405180910390fd5b33600090815260056020908152604080832085845290915290206002015460ff1615610a8f5760405163c03e252960e01b815260040160405180910390fd5b600b548114610ab15760405163162908e360e11b815260040160405180910390fd5b600080546040516323b872dd60e01b8152336004820152306024820152604481018490526001600160a01b03909116906323b872dd906064016020604051808303816000875af1158015610b09573d6000803e3d6000fd5b505050506040513d601f19601f82011682018060405250810190610b2d919061155d565b905080610b4d576040516312171d8360e31b815260040160405180910390fd5b604080516060810182528381524260208083019182526001838501818152336000818152600585528781208b8252855287812096518755945192860192909255516002909401805460ff19169415159490941790935582825260088152838220845161010081018652600a60c0820190815269436f6e7472696275746560b01b60e083015281529383526006825293909120805491830191610bee906114da565b80601f0160208091040260200160405190810160405280929190818152602001828054610c1a906114da565b8015610c675780601f10610c3c57610100808354040283529160200191610c67565b820191906000526020600020905b815481529060010190602001808311610c4a57829003601f168201915b5050509183525050336020808301919091526040820187905242606083015260809091018590528254600181018455600093845292208151919260060201908190610cb29082611603565b5060208201516001820190610cc79082611603565b506040828101516002830180546001600160a01b0319166001600160a01b0390921691909117905560608301516003830155608083015160048084019190915560a0909301516005909201919091553360009081526020928352818120805460ff1916600190811790915560079093529081208054909190610d4a9084906116f0565b9091555050505050565b600a80548190610d63906114da565b80601f0160208091040260200160405190810160405280929190818152602001828054610d8f906114da565b8015610ddc5780601f10610db157610100808354040283529160200191610ddc565b820191906000526020600020905b815481529060010190602001808311610dbf57829003601f168201915b5050506001840154600285015460048601546005870180549697939692955060ff909116935090610e0c906114da565b80601f0160208091040260200160405190810160405280929190818152602001828054610e38906114da565b8015610e855780601f10610e5a57610100808354040283529160200191610e85565b820191906000526020600020905b815481529060010190602001808311610e6857829003601f168201915b5050505050905085565b6060600a600301805480602002602001604051908101604052809291908181526020018280548015610eea57602002820191906000526020600020905b81546001600160a01b03168152600190910190602001808311610ecc575b5050505050905090565b60096020528160005260406000208181548110610f1057600080fd5b9060005260206000209060209182820401919006915091509054906101000a900460ff1681565b3360009081526003602052604090205460ff1615610f6757604051628201ff60e51b815260040160405180910390fd5b600c54600d5410610f8b5760405163bb2c7b0f60e01b815260040160405180910390fd5b600d8054600181019091557fd7b6990105719101dabeb77144f2a3385c8033acd3af97e9423a695e81ad1eb50180546001600160a01b031916339081179091556000908152600660205260409020610fe38282611603565b50336000908152600360205260409020805460ff19166001179055600c5467ffffffffffffffff811115611019576110196112c9565b604051908082528060200260200182016040528015611042578160200160208202803683370190505b5033600090815260096020908152604090912082516110679391929190910190611103565b506040513381527f731b7337b297b06a1853099f6dec71a1a2d20deed94a07e96790ace39b3f9e059060200160405180910390a150565b8280548282559060005260206000209081019282156110f3579160200282015b828111156110f357825182546001600160a01b0319166001600160a01b039091161782556020909201916001909101906110be565b506110ff92915061119f565b5090565b82805482825590600052602060002090601f016020900481019282156110f35791602002820160005b8382111561116957835183826101000a81548160ff021916908315150217905550926020019260010160208160000104928301926001030261112c565b80156111965782816101000a81549060ff0219169055600101602081600001049283019260010302611169565b50506110ff9291505b5b808211156110ff57600081556001016111a0565b80356001600160a01b03811681146111cb57600080fd5b919050565b600080604083850312156111e357600080fd5b6111ec836111b4565b946020939093013593505050565b6000815180845260005b8181101561122057602081850181015186830182015201611204565b506000602082860101526020601f19601f83011685010191505092915050565b60c08152600061125360c08301896111fa565b828103602084015261126581896111fa565b6001600160a01b0397909716604084015250506060810193909352608083019190915260a09091015292915050565b6000602082840312156112a657600080fd5b6112af826111b4565b9392505050565b6020815260006112af60208301846111fa565b634e487b7160e01b600052604160045260246000fd5b600082601f8301126112f057600080fd5b813567ffffffffffffffff81111561130a5761130a6112c9565b604051601f8201601f19908116603f0116810167ffffffffffffffff81118282101715611339576113396112c9565b60405281815283820160200185101561135157600080fd5b816020850160208301376000918101602001919091529392505050565b6000806000806080858703121561138457600080fd5b843567ffffffffffffffff81111561139b57600080fd5b6113a7878288016112df565b9450506020850135925060408501359150606085013567ffffffffffffffff8111156113d257600080fd5b6113de878288016112df565b91505092959194509250565b600080604083850312156113fd57600080fd5b50508035926020909101359150565b60a08152600061141f60a08301886111fa565b8660208401528560408401528415156060840152828103608084015261144581856111fa565b98975050505050505050565b602080825282518282018190526000918401906040840190835b818110156114925783516001600160a01b031683526020938401939092019160010161146b565b509095945050505050565b6000602082840312156114af57600080fd5b813567ffffffffffffffff8111156114c657600080fd5b6114d2848285016112df565b949350505050565b600181811c908216806114ee57607f821691505b60208210810361150e57634e487b7160e01b600052602260045260246000fd5b50919050565b634e487b7160e01b600052603260045260246000fd5b634e487b7160e01b600052601160045260246000fd5b80820281158282048414176115575761155761152a565b92915050565b60006020828403121561156f57600080fd5b815180151581146112af57600080fd5b818103818111156115575761155761152a565b6000826115af57634e487b7160e01b600052601260045260246000fd5b500490565b601f8211156115fe57806000526020600020601f840160051c810160208510156115db5750805b601f840160051c820191505b818110156115fb57600081556001016115e7565b50505b505050565b815167ffffffffffffffff81111561161d5761161d6112c9565b6116318161162b84546114da565b846115b4565b6020601f821160018114611665576000831561164d5750848201515b600019600385901b1c1916600184901b1784556115fb565b600084815260208120601f198516915b828110156116955787850151825560209485019460019092019101611675565b50848210156116b35786840151600019600387901b60f8161c191681555b50505050600190811b01905550565b6040815260006116d560408301856111fa565b82810360208401526116e781856111fa565b95945050505050565b808201808211156115575761155761152a56fea264697066735822122016192086e519bdc57c4a9960161ee7c4a2e536b776c8a605a0965005193e619564736f6c634300081a0033","linkReferences":{}},"methodIdentifiers":{"adashe()":"9e1da6ab","contribute(uint256,uint256)":"8c590917","contributions(address,uint256)":"550b521c","createAdashe(string,uint256,uint256,string)":"79e563d8","frequency()":"ead50da3","getContributionProgress(address)":"42b3e045","getCurrentWeek()":"6eb227ce","getMembers()":"9eab5253","joinAdashe(string)":"fe556447","memberWeekWithdrawals(address,uint256)":"d168a3e4","names(address)":"5cf3d346","owner()":"8da5cb5b","startDate()":"0b97bc86","totalPot()":"24b570a9","totalSaving()":"013b6217","totalWeeks()":"0be08114","transactions(address,uint256)":"14538128","usdc()":"3e413bee","weeksContributed(address)":"4acfc580","withdraw()":"3ccfd60b"},"id":27}