{"abi":[{"type":"constructor","inputs":[],"stateMutability":"nonpayable"},{"type":"function","name":"adashes","inputs":[{"name":"","type":"address","internalType":"address"},{"name":"","type":"uint256","internalType":"uint256"}],"outputs":[{"name":"","type":"address","internalType":"address"}],"stateMutability":"view"},{"type":"function","name":"createAdashe","inputs":[],"outputs":[{"name":"","type":"address","internalType":"address"}],"stateMutability":"nonpayable"},{"type":"function","name":"getAdashes","inputs":[],"outputs":[{"name":"","type":"address[]","internalType":"address[]"}],"stateMutability":"view"},{"type":"function","name":"owner","inputs":[],"outputs":[{"name":"","type":"address","internalType":"address"}],"stateMutability":"view"}],"bytecode":{"object":"0x6080604052348015600f57600080fd5b50600080546001600160a01b03191633179055611bd5806100316000396000f3fe608060405234801561001057600080fd5b506004361061004c5760003560e01c806310ad3873146100515780638da5cb5b1461006f578063b8935d841461009a578063fd709f45146100a2575b600080fd5b6100596100b5565b60405161006691906101fb565b60405180910390f35b600054610082906001600160a01b031681565b6040516001600160a01b039091168152602001610066565b610082610120565b6100826100b0366004610247565b6101b6565b3360009081526001602090815260409182902080548351818402810184019094528084526060939283018282801561011657602002820191906000526020600020905b81546001600160a01b031681526001909101906020018083116100f8575b5050505050905090565b6000803373833589fcd6edb6e08f4c7c32d4f71b54bda02913604051610145906101ee565b6001600160a01b03928316815291166020820152604001604051809103906000f080158015610178573d6000803e3d6000fd5b5033600090815260016020818152604083208054928301815583529091200180546001600160a01b0319166001600160a01b03831617905592915050565b600160205281600052604060002081815481106101d257600080fd5b6000918252602090912001546001600160a01b03169150829050565b6119208061028083390190565b602080825282518282018190526000918401906040840190835b8181101561023c5783516001600160a01b0316835260209384019390920191600101610215565b509095945050505050565b6000806040838503121561025a57600080fd5b82356001600160a01b038116811461027157600080fd5b94602093909301359350505056fe60a0604052348015600f57600080fd5b50604051611920380380611920833981016040819052602c916085565b600080546001600160a01b039283166001600160a01b031991821617909155600180549390921692169190911790554260805262093a8060125560b3565b80516001600160a01b0381168114608057600080fd5b919050565b60008060408385031215609757600080fd5b609e83606a565b915060aa60208401606a565b90509250929050565b6080516118446100dc6000396000818161015201528181610aa40152610ad801526118446000f3fe608060405234801561001057600080fd5b506004361061012c5760003560e01c80635cf3d346116100ad5780639e1da6ab116100715780639e1da6ab146102fd5780639eab525314610316578063d168a3e41461032b578063ead50da31461034e578063fe5564471461035757600080fd5b80635cf3d3461461029c57806362eccea6146102bc5780636eb227ce146102cf5780638c590917146102d75780638da5cb5b146102ea57600080fd5b80633ccfd60b116100f45780633ccfd60b146101ab5780633e413bee146101b557806342b3e045146101e05780634acfc58014610222578063550b521c1461024257600080fd5b8063013b6217146101315780630b97bc861461014d5780630be0811414610174578063145381281461017d57806324b570a9146101a2575b600080fd5b61013a60135481565b6040519081526020015b60405180910390f35b61013a7f000000000000000000000000000000000000000000000000000000000000000081565b61013a60115481565b61019061018b3660046112af565b61036a565b6040516101449695949392919061131f565b61013a60105481565b6101b36104de565b005b6000546101c8906001600160a01b031681565b6040516001600160a01b039091168152602001610144565b61020d6101ee366004611373565b6001600160a01b03166000908152600760205260409020546011549091565b60408051928352602083019190915201610144565b61013a610230366004611373565b60076020526000908152604090205481565b61027f6102503660046112af565b600560209081526000928352604080842090915290825290208054600182015460029092015490919060ff1683565b604080519384526020840192909252151590820152606001610144565b6102af6102aa366004611373565b6106f3565b6040516101449190611395565b6101b36102ca36600461144d565b61078d565b61013a610aa0565b6101b36102e53660046114f5565b610b0c565b6001546101c8906001600160a01b031681565b610305610e33565b604051610144959493929190611517565b61031e610f6e565b604051610144919061155c565b61033e6103393660046112af565b610fd3565b6040519015158152602001610144565b61013a60125481565b6101b36103653660046115a8565b611016565b6008602052816000526040600020818154811061038657600080fd5b9060005260206000209060060201600091509150508060000180546103aa906115e5565b80601f01602080910402602001604051908101604052809291908181526020018280546103d6906115e5565b80156104235780601f106103f857610100808354040283529160200191610423565b820191906000526020600020905b81548152906001019060200180831161040657829003601f168201915b505050505090806001018054610438906115e5565b80601f0160208091040260200160405190810160405280929190818152602001828054610464906115e5565b80156104b15780601f10610486576101008083540402835291602001916104b1565b820191906000526020600020905b81548152906001019060200180831161049457829003601f168201915b5050505060028301546003840154600485015460059095015493946001600160a01b039092169390925086565b60006104e8610aa0565b600d54909150811061050d5760405163ef23848760e01b815260040160405180910390fd5b6000600a60030182815481106105255761052561161f565b6000918252602090912001546001600160a01b0316905033811461055c5760405163023b592560e31b815260040160405180910390fd5b33600090815260096020526040902080548390811061057d5761057d61161f565b90600052602060002090602091828204019190069054906101000a900460ff16156105bb57604051636507689f60e01b815260040160405180910390fd5b336000908152600960205260409020805460019190849081106105e0576105e061161f565b60009182526020808320908204018054931515601f9092166101000a91820260ff9092021990931617909155600c54600b5461061c919061164b565b60005460405163a9059cbb60e01b8152336004820152602481018390529192506001600160a01b03169063a9059cbb906044016020604051808303816000875af115801561066e573d6000803e3d6000fd5b505050506040513d601f19601f820116820180604052508101906106929190611668565b6106af576040516312171d8360e31b815260040160405180910390fd5b6040805133815260208101839052428183015290517ff279e6a1f5e320cca91135676d9cb6e44ca8a08c0b88342bcdb1144f6511b5689181900360600190a1505050565b6006602052600090815260409020805461070c906115e5565b80601f0160208091040260200160405190810160405280929190818152602001828054610738906115e5565b80156107855780601f1061075a57610100808354040283529160200191610785565b820191906000526020600020905b81548152906001019060200180831161076857829003601f168201915b505050505081565b826000036107ae57604051630592b4c160e21b815260040160405180910390fd5b836000036107cf5760405163162908e360e11b815260040160405180910390fd5b6040805160018082528183019092526000916020808301908036833701905050905033816000815181106108055761080561161f565b6001600160a01b039092166020928302919091018201526040805160c0810182528881529182018790528101859052606081018290526000608082015260a08101849052600a8061085689826116d9565b5060208281015160018301556040830151600283015560608301518051610883926003850192019061117d565b50608082015160048201805460ff191691151591909117905560a082015160058201906108b090826116d9565b50506040805180820190915260068152657765656b6c7960d01b6020918201528451908501207f79d3f3831f7fbf4ca83f0d032766c059c0c38978643506a49e2dbb8bc696fc8c01905061090a5762093a806012556109be565b6040805180820190915260078152666d6f6e74686c7960c81b6020918201528351908401207fbc653c95ba6ab0e1ef2c238d03b66718c3dadf383ac23d2821c24ea540886de8016109615762278d006012556109be565b6040805180820190915260058152646461696c7960d81b6020918201528351908401207f2c378731571e801b70c0f7cb3d2df974c6fbf4c1c55983cdcdc2a27d83b9679f016109b657620151806012556109be565b62093a806012555b60118490553360009081526006602052604090206109dc83826116d9565b50336000908152600360205260409020805460ff191660011790558367ffffffffffffffff811115610a1057610a106113a8565b604051908082528060200260200182016040528015610a39578160200160208202803683370190505b503360009081526009602090815260409091208251610a5e93919291909101906111e2565b507f338d83bbdd8d518ca8a69c9342d0db528b08d4817901757bdc012f0dbf60b33b8684604051610a90929190611798565b60405180910390a1505050505050565b60007f0000000000000000000000000000000000000000000000000000000000000000421015610ad05750600090565b601254610afd7f0000000000000000000000000000000000000000000000000000000000000000426117c6565b610b0791906117d9565b905090565b601154821115610b2f5760405163ef23848760e01b815260040160405180910390fd5b33600090815260056020908152604080832085845290915290206002015460ff1615610b6e5760405163c03e252960e01b815260040160405180910390fd5b600b548114610b905760405163162908e360e11b815260040160405180910390fd5b600080546040516323b872dd60e01b8152336004820152306024820152604481018490526001600160a01b03909116906323b872dd906064016020604051808303816000875af1158015610be8573d6000803e3d6000fd5b505050506040513d601f19601f82011682018060405250810190610c0c9190611668565b905080610c2c576040516312171d8360e31b815260040160405180910390fd5b604080516060810182528381524260208083019182526001838501818152336000818152600585528781208b8252855287812096518755945192860192909255516002909401805460ff19169415159490941790935582825260088152838220845161010081018652600a60c0820190815269436f6e7472696275746560b01b60e083015281529383526006825293909120805491830191610ccd906115e5565b80601f0160208091040260200160405190810160405280929190818152602001828054610cf9906115e5565b8015610d465780601f10610d1b57610100808354040283529160200191610d46565b820191906000526020600020905b815481529060010190602001808311610d2957829003601f168201915b5050509183525050336020808301919091526040820187905242606083015260809091018590528254600181018455600093845292208151919260060201908190610d9190826116d9565b5060208201516001820190610da690826116d9565b506040828101516002830180546001600160a01b0319166001600160a01b0390921691909117905560608301516003830155608083015160048084019190915560a0909301516005909201919091553360009081526020928352818120805460ff1916600190811790915560079093529081208054909190610e299084906117fb565b9091555050505050565b600a80548190610e42906115e5565b80601f0160208091040260200160405190810160405280929190818152602001828054610e6e906115e5565b8015610ebb5780601f10610e9057610100808354040283529160200191610ebb565b820191906000526020600020905b815481529060010190602001808311610e9e57829003601f168201915b5050506001840154600285015460048601546005870180549697939692955060ff909116935090610eeb906115e5565b80601f0160208091040260200160405190810160405280929190818152602001828054610f17906115e5565b8015610f645780601f10610f3957610100808354040283529160200191610f64565b820191906000526020600020905b815481529060010190602001808311610f4757829003601f168201915b5050505050905085565b6060600a600301805480602002602001604051908101604052809291908181526020018280548015610fc957602002820191906000526020600020905b81546001600160a01b03168152600190910190602001808311610fab575b5050505050905090565b60096020528160005260406000208181548110610fef57600080fd5b9060005260206000209060209182820401919006915091509054906101000a900460ff1681565b3360009081526003602052604090205460ff161561104657604051628201ff60e51b815260040160405180910390fd5b600c54600d541061106a5760405163bb2c7b0f60e01b815260040160405180910390fd5b600d8054600181019091557fd7b6990105719101dabeb77144f2a3385c8033acd3af97e9423a695e81ad1eb50180546001600160a01b0319163390811790915560009081526006602052604090206110c282826116d9565b50336000908152600360205260409020805460ff19166001179055600c5467ffffffffffffffff8111156110f8576110f86113a8565b604051908082528060200260200182016040528015611121578160200160208202803683370190505b50336000908152600960209081526040909120825161114693919291909101906111e2565b506040513381527f731b7337b297b06a1853099f6dec71a1a2d20deed94a07e96790ace39b3f9e059060200160405180910390a150565b8280548282559060005260206000209081019282156111d2579160200282015b828111156111d257825182546001600160a01b0319166001600160a01b0390911617825560209092019160019091019061119d565b506111de92915061127e565b5090565b82805482825590600052602060002090601f016020900481019282156111d25791602002820160005b8382111561124857835183826101000a81548160ff021916908315150217905550926020019260010160208160000104928301926001030261120b565b80156112755782816101000a81549060ff0219169055600101602081600001049283019260010302611248565b50506111de9291505b5b808211156111de576000815560010161127f565b80356001600160a01b03811681146112aa57600080fd5b919050565b600080604083850312156112c257600080fd5b6112cb83611293565b946020939093013593505050565b6000815180845260005b818110156112ff576020818501810151868301820152016112e3565b506000602082860101526020601f19601f83011685010191505092915050565b60c08152600061133260c08301896112d9565b828103602084015261134481896112d9565b6001600160a01b0397909716604084015250506060810193909352608083019190915260a09091015292915050565b60006020828403121561138557600080fd5b61138e82611293565b9392505050565b60208152600061138e60208301846112d9565b634e487b7160e01b600052604160045260246000fd5b600082601f8301126113cf57600080fd5b813567ffffffffffffffff8111156113e9576113e96113a8565b604051601f8201601f19908116603f0116810167ffffffffffffffff81118282101715611418576114186113a8565b60405281815283820160200185101561143057600080fd5b816020850160208301376000918101602001919091529392505050565b600080600080600060a0868803121561146557600080fd5b853567ffffffffffffffff81111561147c57600080fd5b611488888289016113be565b9550506020860135935060408601359250606086013567ffffffffffffffff8111156114b357600080fd5b6114bf888289016113be565b925050608086013567ffffffffffffffff8111156114dc57600080fd5b6114e8888289016113be565b9150509295509295909350565b6000806040838503121561150857600080fd5b50508035926020909101359150565b60a08152600061152a60a08301886112d9565b8660208401528560408401528415156060840152828103608084015261155081856112d9565b98975050505050505050565b602080825282518282018190526000918401906040840190835b8181101561159d5783516001600160a01b0316835260209384019390920191600101611576565b509095945050505050565b6000602082840312156115ba57600080fd5b813567ffffffffffffffff8111156115d157600080fd5b6115dd848285016113be565b949350505050565b600181811c908216806115f957607f821691505b60208210810361161957634e487b7160e01b600052602260045260246000fd5b50919050565b634e487b7160e01b600052603260045260246000fd5b634e487b7160e01b600052601160045260246000fd5b808202811582820484141761166257611662611635565b92915050565b60006020828403121561167a57600080fd5b8151801515811461138e57600080fd5b601f8211156116d457806000526020600020601f840160051c810160208510156116b15750805b601f840160051c820191505b818110156116d157600081556001016116bd565b50505b505050565b815167ffffffffffffffff8111156116f3576116f36113a8565b6117078161170184546115e5565b8461168a565b6020601f82116001811461173b57600083156117235750848201515b600019600385901b1c1916600184901b1784556116d1565b600084815260208120601f198516915b8281101561176b578785015182556020948501946001909201910161174b565b50848210156117895786840151600019600387901b60f8161c191681555b50505050600190811b01905550565b6040815260006117ab60408301856112d9565b82810360208401526117bd81856112d9565b95945050505050565b8181038181111561166257611662611635565b6000826117f657634e487b7160e01b600052601260045260246000fd5b500490565b808201808211156116625761166261163556fea26469706673582212205a17727fc7a9b4f32bf019f9dd4ed1fe8fbbf640783effa798a6ad20465ea0e964736f6c634300081a0033a264697066735822122070b94d857d7f720c017a24cc836a4e530ffe5a1b68771069244489190f0a67a764736f6c634300081a0033","linkReferences":{}},"methodIdentifiers":{"adashes(address,uint256)":"fd709f45","createAdashe()":"b8935d84","getAdashes()":"10ad3873","owner()":"8da5cb5b"},"id":18}