{"abi":[{"type":"constructor","inputs":[{"name":"_usdc","type":"address","internalType":"address"}],"stateMutability":"nonpayable"},{"type":"receive","stateMutability":"payable"},{"type":"function","name":"EmergencyWithdrawal","inputs":[],"outputs":[],"stateMutability":"nonpayable"},{"type":"function","name":"balances","inputs":[{"name":"","type":"address","internalType":"address"}],"outputs":[{"name":"","type":"uint256","internalType":"uint256"}],"stateMutability":"view"},{"type":"function","name":"getSavingHistory","inputs":[{"name":"user","type":"address","internalType":"address"}],"outputs":[{"name":"","type":"tuple[]","internalType":"struct QuickSave.Saving[]","components":[{"name":"txId","type":"bytes32","internalType":"bytes32"},{"name":"date","type":"uint256","internalType":"uint256"},{"name":"amount","type":"uint256","internalType":"uint256"}]}],"stateMutability":"view"},{"type":"function","name":"getWithdrawalHistory","inputs":[{"name":"user","type":"address","internalType":"address"}],"outputs":[{"name":"","type":"tuple[]","internalType":"struct QuickSave.Withdrawal[]","components":[{"name":"txId","type":"bytes32","internalType":"bytes32"},{"name":"date","type":"uint256","internalType":"uint256"},{"name":"amount","type":"uint256","internalType":"uint256"}]}],"stateMutability":"view"},{"type":"function","name":"owner","inputs":[],"outputs":[{"name":"","type":"address","internalType":"address"}],"stateMutability":"view"},{"type":"function","name":"save","inputs":[{"name":"amount","type":"uint256","internalType":"uint256"}],"outputs":[],"stateMutability":"payable"},{"type":"function","name":"savingHistory","inputs":[{"name":"","type":"address","internalType":"address"},{"name":"","type":"uint256","internalType":"uint256"}],"outputs":[{"name":"txId","type":"bytes32","internalType":"bytes32"},{"name":"date","type":"uint256","internalType":"uint256"},{"name":"amount","type":"uint256","internalType":"uint256"}],"stateMutability":"view"},{"type":"function","name":"usdc","inputs":[],"outputs":[{"name":"","type":"address","internalType":"contract IERC20"}],"stateMutability":"view"},{"type":"function","name":"withdraw","inputs":[{"name":"amount","type":"uint256","internalType":"uint256"}],"outputs":[],"stateMutability":"nonpayable"},{"type":"function","name":"withdrawETH","inputs":[],"outputs":[],"stateMutability":"nonpayable"},{"type":"function","name":"withdrawalHistory","inputs":[{"name":"","type":"address","internalType":"address"},{"name":"","type":"uint256","internalType":"uint256"}],"outputs":[{"name":"txId","type":"bytes32","internalType":"bytes32"},{"name":"date","type":"uint256","internalType":"uint256"},{"name":"amount","type":"uint256","internalType":"uint256"}],"stateMutability":"view"},{"type":"event","name":"EmergencyWithdrawalExecuted","inputs":[{"name":"owner","type":"address","indexed":true,"internalType":"address"},{"name":"amount","type":"uint256","indexed":false,"internalType":"uint256"},{"name":"timestamp","type":"uint256","indexed":false,"internalType":"uint256"}],"anonymous":false},{"type":"event","name":"EtherWithdrawn","inputs":[{"name":"to","type":"address","indexed":true,"internalType":"address"},{"name":"amount","type":"uint256","indexed":false,"internalType":"uint256"},{"name":"timestamp","type":"uint256","indexed":false,"internalType":"uint256"}],"anonymous":false},{"type":"event","name":"Saved","inputs":[{"name":"user","type":"address","indexed":false,"internalType":"address"},{"name":"amount","type":"uint256","indexed":false,"internalType":"uint256"},{"name":"time","type":"uint256","indexed":false,"internalType":"uint256"}],"anonymous":false},{"type":"event","name":"Withdraw","inputs":[{"name":"user","type":"address","indexed":false,"internalType":"address"},{"name":"amount","type":"uint256","indexed":false,"internalType":"uint256"},{"name":"time","type":"uint256","indexed":false,"internalType":"uint256"}],"anonymous":false},{"type":"error","name":"CallerNotOwner","inputs":[]},{"type":"error","name":"InvalidAmount","inputs":[]},{"type":"error","name":"TransferFailed","inputs":[]}],"bytecode":{"object":"0x6080604052348015600f57600080fd5b50604051610cc3380380610cc3833981016040819052602c916059565b600080546001600160a01b039092166001600160a01b031992831617905560018054909116331790556087565b600060208284031215606a57600080fd5b81516001600160a01b0381168114608057600080fd5b9392505050565b610c2d806100966000396000f3fe6080604052600436106100a05760003560e01c80633e413bee116100645780633e413bee146101895780634a56c9a7146101c15780636343e137146101e157806374dbd8a1146101f65780638da5cb5b14610223578063e086e5ec1461024357600080fd5b80631b862027146100ac57806327e235e3146100c15780632e1a7d4d146101015780633114740e146101215780633b1480ed1461014e57600080fd5b366100a757005b600080fd5b6100bf6100ba366004610a16565b610258565b005b3480156100cd57600080fd5b506100ee6100dc366004610a4b565b60046020526000908152604090205481565b6040519081526020015b60405180910390f35b34801561010d57600080fd5b506100bf61011c366004610a16565b610402565b34801561012d57600080fd5b5061014161013c366004610a4b565b6105ce565b6040516100f89190610a6d565b34801561015a57600080fd5b5061016e610169366004610acf565b610661565b604080519384526020840192909252908201526060016100f8565b34801561019557600080fd5b506000546101a9906001600160a01b031681565b6040516001600160a01b0390911681526020016100f8565b3480156101cd57600080fd5b5061016e6101dc366004610acf565b6106a3565b3480156101ed57600080fd5b506100bf6106bf565b34801561020257600080fd5b50610216610211366004610a4b565b6108c4565b6040516100f89190610af9565b34801561022f57600080fd5b506001546101a9906001600160a01b031681565b34801561024f57600080fd5b506100bf610949565b806000036102795760405163162908e360e11b815260040160405180910390fd5b600080546040516323b872dd60e01b8152336004820152306024820152604481018490526001600160a01b03909116906323b872dd906064016020604051808303816000875af11580156102d1573d6000803e3d6000fd5b505050506040513d601f19601f820116820180604052508101906102f59190610b50565b905080610315576040516312171d8360e31b815260040160405180910390fd5b3360009081526004602052604081208054849290610334908490610b88565b9091555050336000818152600260205260409081902081516060810190925291819061036590864260808501610ba1565b60408051808303601f19018152918152815160209283012083524283830181905292810187905284546001808201875560009687529583902085516003909202019081558483015195810195909555928301516002909401939093558151338152928301859052908201527ffe7f0d9312e396d50f323cae11d7ebeada5139e12ce702baf7c3d3897b04bf33906060015b60405180910390a15050565b806000036104235760405163162908e360e11b815260040160405180910390fd5b336000908152600460205260409020548111156104535760405163162908e360e11b815260040160405180910390fd5b3360009081526004602052604081208054839290610472908490610bcb565b90915550506000805460405163a9059cbb60e01b8152336004820152602481018490526001600160a01b039091169063a9059cbb906044016020604051808303816000875af11580156104c9573d6000803e3d6000fd5b505050506040513d601f19601f820116820180604052508101906104ed9190610b50565b90508061050d576040516312171d8360e31b815260040160405180910390fd5b336000818152600360205260409081902081516060810190925291819061053990864260808501610ba1565b60408051808303601f19018152918152815160209283012083524283830181905292810187905284546001808201875560009687529583902085516003909202019081558483015195810195909555928301516002909401939093558151338152928301859052908201527ff279e6a1f5e320cca91135676d9cb6e44ca8a08c0b88342bcdb1144f6511b568906060016103f6565b6001600160a01b0381166000908152600360209081526040808320805482518185028101850190935280835260609492939192909184015b828210156106565783829060005260206000209060030201604051806060016040529081600082015481526020016001820154815260200160028201548152505081526020019060010190610606565b505050509050919050565b6002602052816000526040600020818154811061067d57600080fd5b600091825260209091206003909102018054600182015460029092015490935090915083565b6003602052816000526040600020818154811061067d57600080fd5b6001546001600160a01b031633146106ea57604051632e6c18c960e11b815260040160405180910390fd5b600080546040516370a0823160e01b81523060048201526001600160a01b03909116906370a0823190602401602060405180830381865afa158015610733573d6000803e3d6000fd5b505050506040513d601f19601f820116820180604052508101906107579190610bde565b6000805460405163a9059cbb60e01b81523360048201526024810184905292935090916001600160a01b039091169063a9059cbb906044016020604051808303816000875af11580156107ae573d6000803e3d6000fd5b505050506040513d601f19601f820116820180604052508101906107d29190610b50565b9050806107f2576040516312171d8360e31b815260040160405180910390fd5b336000818152600360205260409081902081516060810190925291819061081e90864260808501610ba1565b60408051601f1981840301815291815281516020928301208352428383018190529281018790528454600181810187556000968752958390208551600390920201908155918401518286015592830151600290910155915490516001600160a01b03909116917fbd3f177902849096babd410c2958c20d90aaa8e1cbde563967b3b82b6bfcd37e916108b891868252602082015260400190565b60405180910390a25050565b6001600160a01b03811660009081526002602090815260408083208054825181850281018501909352808352606094929391929091840182156106565783829060005260206000209060030201604051806060016040529081600082015481526020016001820154815260200160028201548152505081526020019060010190610606565b6001546001600160a01b0316331461097457604051632e6c18c960e11b815260040160405180910390fd5b6040514790600090339083908381818185875af1925050503d80600081146109b8576040519150601f19603f3d011682016040523d82523d6000602084013e6109bd565b606091505b50509050806109df576040516312171d8360e31b815260040160405180910390fd5b6040805183815242602082015233917fd5ca65e1ec4f4864fea7b9c5cb1ec3087a0dbf9c74641db3f6458edf445c405191016108b8565b600060208284031215610a2857600080fd5b5035919050565b80356001600160a01b0381168114610a4657600080fd5b919050565b600060208284031215610a5d57600080fd5b610a6682610a2f565b9392505050565b602080825282518282018190526000918401906040840190835b81811015610ac457610aae8385518051825260208082015190830152604090810151910152565b6020939093019260609290920191600101610a87565b509095945050505050565b60008060408385031215610ae257600080fd5b610aeb83610a2f565b946020939093013593505050565b602080825282518282018190526000918401906040840190835b81811015610ac457610b3a8385518051825260208082015190830152604090810151910152565b6020939093019260609290920191600101610b13565b600060208284031215610b6257600080fd5b81518015158114610a6657600080fd5b634e487b7160e01b600052601160045260246000fd5b80820180821115610b9b57610b9b610b72565b92915050565b60609390931b6bffffffffffffffffffffffff191683526014830191909152603482015260540190565b81810381811115610b9b57610b9b610b72565b600060208284031215610bf057600080fd5b505191905056fea26469706673582212205ef3e0d881dad39106ad4bf40130230a4744dc64e0847fc6e4b3719dafffe6cb64736f6c634300081a0033","linkReferences":{}},"methodIdentifiers":{"EmergencyWithdrawal()":"6343e137","balances(address)":"27e235e3","getSavingHistory(address)":"74dbd8a1","getWithdrawalHistory(address)":"3114740e","owner()":"8da5cb5b","save(uint256)":"1b862027","savingHistory(address,uint256)":"3b1480ed","usdc()":"3e413bee","withdraw(uint256)":"2e1a7d4d","withdrawETH()":"e086e5ec","withdrawalHistory(address,uint256)":"4a56c9a7"},"id":17}