{"abi":[{"type":"constructor","inputs":[],"stateMutability":"nonpayable"},{"type":"function","name":"createSafeLock","inputs":[{"name":"_days_in_number","type":"uint32","internalType":"uint32"}],"outputs":[{"name":"","type":"address","internalType":"address"}],"stateMutability":"nonpayable"},{"type":"function","name":"getSafeLocks","inputs":[],"outputs":[{"name":"","type":"address[]","internalType":"address[]"}],"stateMutability":"view"},{"type":"function","name":"owner","inputs":[],"outputs":[{"name":"","type":"address","internalType":"address"}],"stateMutability":"view"},{"type":"function","name":"safelocks","inputs":[{"name":"","type":"address","internalType":"address"},{"name":"","type":"uint256","internalType":"uint256"}],"outputs":[{"name":"","type":"address","internalType":"address"}],"stateMutability":"view"}],"bytecode":{"object":"0x6080604052348015600f57600080fd5b50600080546001600160a01b03191633179055611591806100316000396000f3fe608060405234801561001057600080fd5b506004361061004c5760003560e01c80636202e71b1461005157806371bfa535146100815780638ae01431146100965780638da5cb5b146100a9575b600080fd5b61006461005f3660046102ae565b6100bc565b6040516001600160a01b0390911681526020015b60405180910390f35b6100896100f4565b60405161007891906102e6565b6100646100a4366004610332565b61015f565b600054610064906001600160a01b031681565b600160205281600052604060002081815481106100d857600080fd5b6000918252602090912001546001600160a01b03169150829050565b3360009081526001602090815260409182902080548351818402810184019094528084526060939283018282801561015557602002820191906000526020600020905b81546001600160a01b03168152600190910190602001808311610137575b5050505050905090565b60008163ffffffff16601e148061017c57508163ffffffff16603c145b8061018d57508163ffffffff16605a145b6101cc5760405162461bcd60e51b815260206004820152600c60248201526b496e76616c6964206461797360a01b604482015260640160405180910390fd5b60006101db836201518061035f565b63ffffffff16905060008060009054906101000a90046001600160a01b0316338373833589fcd6edb6e08f4c7c32d4f71b54bda0291360405161021d906102a1565b6001600160a01b039485168152928416602084015260408301919091529091166060820152608001604051809103906000f080158015610261573d6000803e3d6000fd5b5033600090815260016020818152604083208054928301815583529091200180546001600160a01b0319166001600160a01b038316179055949350505050565b6111c88061039483390190565b600080604083850312156102c157600080fd5b82356001600160a01b03811681146102d857600080fd5b946020939093013593505050565b602080825282518282018190526000918401906040840190835b818110156103275783516001600160a01b0316835260209384019390920191600101610300565b509095945050505050565b60006020828403121561034457600080fd5b813563ffffffff8116811461035857600080fd5b9392505050565b63ffffffff818116838216029081169081811461038c57634e487b7160e01b600052601160045260246000fd5b509291505056fe60a060405234801561001057600080fd5b506040516111c83803806111c883398101604081905261002f9161009f565b600080546001600160a01b038084166001600160a01b03199283161790925560018054878416908316179055600280549286169290911691909117905561007682426100ec565b6080525061011392505050565b80516001600160a01b038116811461009a57600080fd5b919050565b600080600080608085870312156100b557600080fd5b6100be85610083565b93506100cc60208601610083565b9250604085015191506100e160608601610083565b905092959194509250565b8082018082111561010d57634e487b7160e01b600052601160045260246000fd5b92915050565b608051611093610135600039600081816101550152610c1b01526110936000f3fe6080604052600436106100f75760003560e01c80636343e1371161008a578063b6b55f2511610059578063b6b55f2514610332578063c0894cfa14610352578063e086e5ec14610374578063ff50abdc1461038957600080fd5b80636343e137146102bb5780636516adb4146102d05780638da5cb5b146102f25780638fe501931461031257600080fd5b80632e1a7d4d116100c65780632e1a7d4d146102015780633e413bee146102235780634a56c9a71461025b5780634f8632ba1461029b57600080fd5b80630103c92b146101035780631820cabb146101435780631cf15cd8146101775780632af43cd9146101c657600080fd5b366100fe57005b600080fd5b34801561010f57600080fd5b5061013061011e366004610e66565b60056020526000908152604090205481565b6040519081526020015b60405180910390f35b34801561014f57600080fd5b506101307f000000000000000000000000000000000000000000000000000000000000000081565b34801561018357600080fd5b50610197610192366004610e88565b61039f565b6040805196875260208701959095529385019290925215156060840152608083015260a082015260c00161013a565b3480156101d257600080fd5b506101e66101e1366004610e88565b6103f7565b6040805193845260208401929092529082015260600161013a565b34801561020d57600080fd5b5061022161021c366004610eb2565b610439565b005b34801561022f57600080fd5b50600054610243906001600160a01b031681565b6040516001600160a01b03909116815260200161013a565b34801561026757600080fd5b5061027b610276366004610e88565b610670565b60408051948552602085019390935291830152606082015260800161013a565b3480156102a757600080fd5b50600254610243906001600160a01b031681565b3480156102c757600080fd5b506102216106b6565b3480156102dc57600080fd5b506102e56108c7565b60405161013a9190610ecb565b3480156102fe57600080fd5b50600154610243906001600160a01b031681565b34801561031e57600080fd5b506101e661032d366004610eb2565b610977565b34801561033e57600080fd5b5061022161034d366004610eb2565b610a7b565b34801561035e57600080fd5b50610367610ce9565b60405161013a9190610f4a565b34801561038057600080fd5b50610221610d7d565b34801561039557600080fd5b5061013060035481565b600460205281600052604060002081815481106103bb57600080fd5b60009182526020909120600690910201805460018201546002830154600384015460048501546005909501549396509194509260ff9091169186565b6007602052816000526040600020818154811061041357600080fd5b600091825260209091206003909102018054600182015460029092015490935090915083565b6002546001600160a01b0316331461046457604051631c4e317f60e11b815260040160405180910390fd5b33600090815260046020526040812080548390811061048557610485610fa8565b9060005260206000209060060201905080600201546000036104ba5760405163162908e360e11b815260040160405180910390fd5b60028101543360009081526005602052604090205410156104ee5760405163162908e360e11b815260040160405180910390fd5b80600401544210156105135760405163820ab9fb60e01b815260040160405180910390fd5b600381015460ff161561053957604051636507689f60e01b815260040160405180910390fd5b6002810154336000908152600560205260408120805490919061055d908490610fd4565b909155505060008054600283015460405163a9059cbb60e01b815233600482015260248101919091526001600160a01b039091169063a9059cbb906044016020604051808303816000875af11580156105ba573d6000803e3d6000fd5b505050506040513d601f19601f820116820180604052508101906105de9190610fed565b9050806105fe576040516312171d8360e31b815260040160405180910390fd5b600061060984610977565b505060038401805460ff1916600117905560058401819055600284015460408051338152602081019290925242908201529091507ff279e6a1f5e320cca91135676d9cb6e44ca8a08c0b88342bcdb1144f6511b5689060600160405180910390a150505050565b6006602052816000526040600020818154811061068c57600080fd5b60009182526020909120600490910201805460018201546002830154600390930154919450925084565b6001546001600160a01b031633146106e157604051632e6c18c960e11b815260040160405180910390fd5b600080546040516370a0823160e01b81523060048201526001600160a01b03909116906370a0823190602401602060405180830381865afa15801561072a573d6000803e3d6000fd5b505050506040513d601f19601f8201168201806040525081019061074e919061100f565b6000805460405163a9059cbb60e01b81523360048201526024810184905292935090916001600160a01b039091169063a9059cbb906044016020604051808303816000875af11580156107a5573d6000803e3d6000fd5b505050506040513d601f19601f820116820180604052508101906107c99190610fed565b9050806107e9576040516312171d8360e31b815260040160405180910390fd5b3360008181526007602090815260408083208151606080820184529590951b6bffffffffffffffffffffffff19166080860152609485018790524260b48087018290528351808803909101815260d487018452805190850120865285840181815286840189815283546001808201865594885296869020975160039097029097019586555185830155945160029094019390935591548251868152918201939093526001600160a01b03909216917fbd3f177902849096babd410c2958c20d90aaa8e1cbde563967b3b82b6bfcd37e91015b60405180910390a25050565b6002546001600160a01b03166000908152600460209081526040808320805482518185028101850190935280835260609492939192909184015b8282101561096e5760008481526020908190206040805160c081018252600686029092018054835260018082015484860152600282015492840192909252600381015460ff1615156060840152600481015460808401526005015460a08301529083529092019101610901565b50505050905090565b6002546001600160a01b03166000908152600460205260408120805482918291829190869081106109aa576109aa610fa8565b600091825260208083206040805160c0810182526006909402909101805484526001810154928401839052600281015491840191909152600381015460ff161515606084015260048101546080840181905260059091015460a0840152919350610a1391610fd4565b9050610a226201518082611028565b9350600082608001514211610a45576020830151610a409042610fd4565b610a47565b815b9050610a566201518082611028565b9550858511610a66576000610a70565b610a708686610fd4565b959794965050505050565b6002546001600160a01b03163314610aa657604051631c4e317f60e11b815260040160405180910390fd5b80600003610ac75760405163162908e360e11b815260040160405180910390fd5b600080546040516323b872dd60e01b8152336004820152306024820152604481018490526001600160a01b03909116906323b872dd906064016020604051808303816000875af1158015610b1f573d6000803e3d6000fd5b505050506040513d601f19601f82011682018060405250810190610b439190610fed565b905080610b63576040516312171d8360e31b815260040160405180910390fd5b3360009081526005602052604081208054849290610b8290849061104a565b925050819055508160036000828254610b9b919061104a565b90915550503360008181526004602052604090819020815160c0810190925260609290921b6bffffffffffffffffffffffff191660e082015260f481018490524261011482015280610134810160408051808303601f190181529181528151602092830120835242838301819052838201889052600060608086018290527f0000000000000000000000000000000000000000000000000000000000000000608080880182905260a0978801849052895460018082018c559a855293879020895160069095020193845588870151998401999099558785015160028401558782015160038401805460ff19169115159190911790558789015160048401559690950151600590910155815133815292830188905290820152908101919091527f5fd6721c350c83bd7367008965a4e044a741c9069c653931023fd27be9f986a5910160405180910390a15050565b6002546001600160a01b03166000908152600660209081526040808320805482518185028101850190935280835260609492939192909184015b8282101561096e578382906000526020600020906004020160405180608001604052908160008201548152602001600182015481526020016002820154815260200160038201548152505081526020019060010190610d23565b6001546001600160a01b03163314610da857604051632e6c18c960e11b815260040160405180910390fd5b6040514790600090339083908381818185875af1925050503d8060008114610dec576040519150601f19603f3d011682016040523d82523d6000602084013e610df1565b606091505b5050905080610e13576040516312171d8360e31b815260040160405180910390fd5b6040805183815242602082015233917fd5ca65e1ec4f4864fea7b9c5cb1ec3087a0dbf9c74641db3f6458edf445c405191016108bb565b80356001600160a01b0381168114610e6157600080fd5b919050565b600060208284031215610e7857600080fd5b610e8182610e4a565b9392505050565b60008060408385031215610e9b57600080fd5b610ea483610e4a565b946020939093013593505050565b600060208284031215610ec457600080fd5b5035919050565b602080825282518282018190526000918401906040840190835b81811015610f3f5783518051845260208101516020850152604081015160408501526060810151151560608501526080810151608085015260a081015160a08501525060c083019250602084019350600181019050610ee5565b509095945050505050565b602080825282518282018190526000918401906040840190835b81811015610f3f5783518051845260208101516020850152604081015160408501526060810151606085015250608083019250602084019350600181019050610f64565b634e487b7160e01b600052603260045260246000fd5b634e487b7160e01b600052601160045260246000fd5b81810381811115610fe757610fe7610fbe565b92915050565b600060208284031215610fff57600080fd5b81518015158114610e8157600080fd5b60006020828403121561102157600080fd5b5051919050565b60008261104557634e487b7160e01b600052601260045260246000fd5b500490565b80820180821115610fe757610fe7610fbe56fea26469706673582212201649523f4301b66f0d1147cfa0fd10c95fb3f267578ddb3a3b66aac143ce965664736f6c634300081a0033a26469706673582212201efa4d07f87a91937b7a89ff94f827ee2ad478cdf9a1e0f36724ad5525dd496164736f6c634300081a0033","linkReferences":{}},"methodIdentifiers":{"createSafeLock(uint32)":"8ae01431","getSafeLocks()":"71bfa535","owner()":"8da5cb5b","safelocks(address,uint256)":"6202e71b"},"id":21}